{
  "contractName": "DeFiProtocol",
  "abi": [
    {
      "inputs": [
        {
          "internalType": "address",
          "name": "_tokenAddress",
          "type": "address"
        }
      ],
      "stateMutability": "nonpayable",
      "type": "constructor"
    },
    {
      "anonymous": false,
      "inputs": [
        {
          "indexed": false,
          "internalType": "uint256",
          "name": "stakedAmount",
          "type": "uint256"
        }
      ],
      "name": "AmountStaked",
      "type": "event"
    },
    {
      "anonymous": false,
      "inputs": [
        {
          "indexed": false,
          "internalType": "uint256",
          "name": "unstakedAmount",
          "type": "uint256"
        }
      ],
      "name": "AmountUnstaked",
      "type": "event"
    },
    {
      "anonymous": false,
      "inputs": [
        {
          "indexed": true,
          "internalType": "address",
          "name": "previousOwner",
          "type": "address"
        },
        {
          "indexed": true,
          "internalType": "address",
          "name": "newOwner",
          "type": "address"
        }
      ],
      "name": "OwnershipTransferred",
      "type": "event"
    },
    {
      "anonymous": false,
      "inputs": [
        {
          "indexed": false,
          "internalType": "uint256",
          "name": "rewardClaimedAmount",
          "type": "uint256"
        }
      ],
      "name": "RewardOffered",
      "type": "event"
    },
    {
      "inputs": [],
      "name": "owner",
      "outputs": [
        {
          "internalType": "address",
          "name": "",
          "type": "address"
        }
      ],
      "stateMutability": "view",
      "type": "function",
      "constant": true
    },
    {
      "inputs": [],
      "name": "renounceOwnership",
      "outputs": [],
      "stateMutability": "nonpayable",
      "type": "function"
    },
    {
      "inputs": [],
      "name": "totalValueLocked",
      "outputs": [
        {
          "internalType": "uint256",
          "name": "",
          "type": "uint256"
        }
      ],
      "stateMutability": "view",
      "type": "function",
      "constant": true
    },
    {
      "inputs": [
        {
          "internalType": "address",
          "name": "newOwner",
          "type": "address"
        }
      ],
      "name": "transferOwnership",
      "outputs": [],
      "stateMutability": "nonpayable",
      "type": "function"
    },
    {
      "inputs": [
        {
          "internalType": "uint256",
          "name": "_amount",
          "type": "uint256"
        }
      ],
      "name": "stake",
      "outputs": [],
      "stateMutability": "payable",
      "type": "function",
      "payable": true
    },
    {
      "inputs": [
        {
          "internalType": "uint256",
          "name": "_amount",
          "type": "uint256"
        }
      ],
      "name": "unstake",
      "outputs": [],
      "stateMutability": "payable",
      "type": "function",
      "payable": true
    },
    {
      "inputs": [],
      "name": "getStakedAmount",
      "outputs": [
        {
          "internalType": "uint256",
          "name": "stakedAmount",
          "type": "uint256"
        }
      ],
      "stateMutability": "view",
      "type": "function",
      "constant": true
    },
    {
      "inputs": [],
      "name": "getTimeStamp",
      "outputs": [
        {
          "internalType": "uint256",
          "name": "actualStamp",
          "type": "uint256"
        },
        {
          "internalType": "uint256",
          "name": "userStamp",
          "type": "uint256"
        }
      ],
      "stateMutability": "view",
      "type": "function",
      "constant": true
    },
    {
      "inputs": [],
      "name": "getTokenPrice",
      "outputs": [
        {
          "internalType": "int256",
          "name": "tokenPrice",
          "type": "int256"
        }
      ],
      "stateMutability": "view",
      "type": "function",
      "constant": true
    },
    {
      "inputs": [],
      "name": "getRewardAmount",
      "outputs": [
        {
          "internalType": "uint256",
          "name": "reward",
          "type": "uint256"
        },
        {
          "internalType": "uint256",
          "name": "hwtUsdValue",
          "type": "uint256"
        }
      ],
      "stateMutability": "view",
      "type": "function",
      "constant": true
    },
    {
      "inputs": [],
      "name": "claimReward",
      "outputs": [],
      "stateMutability": "nonpayable",
      "type": "function"
    }
  ],
  "bytecode": "0x60806040526000600255670ced5a509046c00060055564d7957c64256006553480156200002b57600080fd5b50604051620016ba380380620016ba833981810160405281019062000051919062000244565b62000071620000656200010e60201b60201c565b6200011660201b60201c565b80600360006101000a81548173ffffffffffffffffffffffffffffffffffffffff021916908373ffffffffffffffffffffffffffffffffffffffff160217905550732c1d072e956affc0d435cb7ac38ef18d24d9127c600460006101000a81548173ffffffffffffffffffffffffffffffffffffffff021916908373ffffffffffffffffffffffffffffffffffffffff1602179055505062000276565b600033905090565b60008060009054906101000a900473ffffffffffffffffffffffffffffffffffffffff169050816000806101000a81548173ffffffffffffffffffffffffffffffffffffffff021916908373ffffffffffffffffffffffffffffffffffffffff1602179055508173ffffffffffffffffffffffffffffffffffffffff168173ffffffffffffffffffffffffffffffffffffffff167f8be0079c531659141344cd1fd0a4f28419497f9722a3daafe3b4186f6b6457e060405160405180910390a35050565b600080fd5b600073ffffffffffffffffffffffffffffffffffffffff82169050919050565b60006200020c82620001df565b9050919050565b6200021e81620001ff565b81146200022a57600080fd5b50565b6000815190506200023e8162000213565b92915050565b6000602082840312156200025d576200025c620001da565b5b60006200026d848285016200022d565b91505092915050565b61143480620002866000396000f3fe60806040526004361061009c5760003560e01c8063a4e15db911610064578063a4e15db914610156578063a694fc3a14610181578063b88a802f1461019d578063da235b22146101b4578063ec18154e146101e0578063f2fde38b1461020b5761009c565b806309a69f57146100a15780632e17de78146100cd5780634b94f50e146100e9578063715018a6146101145780638da5cb5b1461012b575b600080fd5b3480156100ad57600080fd5b506100b6610234565b6040516100c4929190610c9e565b60405180910390f35b6100e760048036038101906100e29190610cf8565b6102b2565b005b3480156100f557600080fd5b506100fe6104cc565b60405161010b9190610d3e565b60405180910390f35b34801561012057600080fd5b5061012961056d565b005b34801561013757600080fd5b506101406105f5565b60405161014d9190610d9a565b60405180910390f35b34801561016257600080fd5b5061016b61061e565b6040516101789190610db5565b60405180910390f35b61019b60048036038101906101969190610cf8565b610668565b005b3480156101a957600080fd5b506101b261084f565b005b3480156101c057600080fd5b506101c96109fa565b6040516101d7929190610c9e565b60405180910390f35b3480156101ec57600080fd5b506101f5610a49565b6040516102029190610db5565b60405180910390f35b34801561021757600080fd5b50610232600480360381019061022d9190610dfc565b610a4f565b005b6000806102a7600160003373ffffffffffffffffffffffffffffffffffffffff1673ffffffffffffffffffffffffffffffffffffffff1681526020019081526020016000206040518060600160405290816000820154815260200160018201548152602001600282015481525050610b46565b600554915091509091565b80600081116102f6576040517f08c379a00000000000000000000000000000000000000000000000000000000081526004016102ed90610eac565b60405180910390fd5b6000600160003373ffffffffffffffffffffffffffffffffffffffff1673ffffffffffffffffffffffffffffffffffffffff16815260200190815260200160002090508060000154831115610380576040517f08c379a000000000000000000000000000000000000000000000000000000000815260040161037790610f3e565b60405180910390fd5b6103b2816040518060600160405290816000820154815260200160018201548152602001600282015481525050610b46565b81600201819055508281600001546103ca9190610f8d565b8160000181905550428160010181905550826002546103e99190610f8d565b600281905550600360009054906101000a900473ffffffffffffffffffffffffffffffffffffffff1673ffffffffffffffffffffffffffffffffffffffff1663a9059cbb33856040518363ffffffff1660e01b815260040161044c929190610fc1565b6020604051808303816000875af115801561046b573d6000803e3d6000fd5b505050506040513d601f19601f8201168201806040525081019061048f9190611022565b507f2f8effe7ffe0e306b06e4755a1a92f6d3bc946de9c4f6a406dbc132c86eb36d4836040516104bf9190610db5565b60405180910390a1505050565b600080600460009054906101000a900473ffffffffffffffffffffffffffffffffffffffff1673ffffffffffffffffffffffffffffffffffffffff1663feaf968c6040518163ffffffff1660e01b815260040160a060405180830381865afa15801561053c573d6000803e3d6000fd5b505050506040513d601f19601f8201168201806040525081019061056091906110d2565b5050509150508091505090565b610575610bb9565b73ffffffffffffffffffffffffffffffffffffffff166105936105f5565b73ffffffffffffffffffffffffffffffffffffffff16146105e9576040517f08c379a00000000000000000000000000000000000000000000000000000000081526004016105e090611199565b60405180910390fd5b6105f36000610bc1565b565b60008060009054906101000a900473ffffffffffffffffffffffffffffffffffffffff16905090565b6000600160003373ffffffffffffffffffffffffffffffffffffffff1673ffffffffffffffffffffffffffffffffffffffff16815260200190815260200160002060000154905090565b80600081116106ac576040517f08c379a00000000000000000000000000000000000000000000000000000000081526004016106a390610eac565b60405180910390fd5b600360009054906101000a900473ffffffffffffffffffffffffffffffffffffffff1673ffffffffffffffffffffffffffffffffffffffff166323b872dd3330856040518463ffffffff1660e01b815260040161070b939291906111b9565b6020604051808303816000875af115801561072a573d6000803e3d6000fd5b505050506040513d601f19601f8201168201806040525081019061074e9190611022565b506000600160003373ffffffffffffffffffffffffffffffffffffffff1673ffffffffffffffffffffffffffffffffffffffff16815260200190815260200160002090506000816000015411156107da576107d1816040518060600160405290816000820154815260200160018201548152602001600282015481525050610b46565b81600201819055505b8281600001546107ea91906111f0565b81600001819055504281600101819055508260025461080991906111f0565b6002819055507fd8e1da2ea55fa9c4413c33f029c3f3fb5289e22eb1cab9d922ffb18f5d9a273e81600001546040516108429190610db5565b60405180910390a1505050565b6000600160003373ffffffffffffffffffffffffffffffffffffffff1673ffffffffffffffffffffffffffffffffffffffff168152602001908152602001600020905060006108c6826040518060600160405290816000820154815260200160018201548152602001600282015481525050610b46565b90506000811161090b576040517f08c379a000000000000000000000000000000000000000000000000000000000815260040161090290611292565b60405180910390fd5b42826001018190555060008260020181905550600360009054906101000a900473ffffffffffffffffffffffffffffffffffffffff1673ffffffffffffffffffffffffffffffffffffffff1663a9059cbb33836040518363ffffffff1660e01b815260040161097b929190610fc1565b6020604051808303816000875af115801561099a573d6000803e3d6000fd5b505050506040513d601f19601f820116820180604052508101906109be9190611022565b507f39a5d140e3e3a18613a91b12d365dc0c589797b664f414f85ff68161ac6fbbb6816040516109ee9190610db5565b60405180910390a15050565b60008042600160003373ffffffffffffffffffffffffffffffffffffffff1673ffffffffffffffffffffffffffffffffffffffff16815260200190815260200160002060010154915091509091565b60025481565b610a57610bb9565b73ffffffffffffffffffffffffffffffffffffffff16610a756105f5565b73ffffffffffffffffffffffffffffffffffffffff1614610acb576040517f08c379a0000000000000000000000000000000000000000000000000000000008152600401610ac290611199565b60405180910390fd5b600073ffffffffffffffffffffffffffffffffffffffff168173ffffffffffffffffffffffffffffffffffffffff1603610b3a576040517f08c379a0000000000000000000000000000000000000000000000000000000008152600401610b3190611324565b60405180910390fd5b610b4381610bc1565b50565b6000808260000151600654846020015142610b619190610f8d565b610b6b9190611344565b610b759190611344565b90506000811115610bab57670de0b6b3a764000081610b9491906113cd565b8360400151610ba391906111f0565b915050610bb4565b82604001519150505b919050565b600033905090565b60008060009054906101000a900473ffffffffffffffffffffffffffffffffffffffff169050816000806101000a81548173ffffffffffffffffffffffffffffffffffffffff021916908373ffffffffffffffffffffffffffffffffffffffff1602179055508173ffffffffffffffffffffffffffffffffffffffff168173ffffffffffffffffffffffffffffffffffffffff167f8be0079c531659141344cd1fd0a4f28419497f9722a3daafe3b4186f6b6457e060405160405180910390a35050565b6000819050919050565b610c9881610c85565b82525050565b6000604082019050610cb36000830185610c8f565b610cc06020830184610c8f565b9392505050565b600080fd5b610cd581610c85565b8114610ce057600080fd5b50565b600081359050610cf281610ccc565b92915050565b600060208284031215610d0e57610d0d610cc7565b5b6000610d1c84828501610ce3565b91505092915050565b6000819050919050565b610d3881610d25565b82525050565b6000602082019050610d536000830184610d2f565b92915050565b600073ffffffffffffffffffffffffffffffffffffffff82169050919050565b6000610d8482610d59565b9050919050565b610d9481610d79565b82525050565b6000602082019050610daf6000830184610d8b565b92915050565b6000602082019050610dca6000830184610c8f565b92915050565b610dd981610d79565b8114610de457600080fd5b50565b600081359050610df681610dd0565b92915050565b600060208284031215610e1257610e11610cc7565b5b6000610e2084828501610de7565b91505092915050565b600082825260208201905092915050565b7f4f6e6c7920616d6f756e742061626f7665207a65726f2061726520617574686f60008201527f72697a6564000000000000000000000000000000000000000000000000000000602082015250565b6000610e96602583610e29565b9150610ea182610e3a565b604082019050919050565b60006020820190508181036000830152610ec581610e89565b9050919050565b7f596f75206469646e27742073746f726564207468697320616d6f756e7420696e60008201527f2074686520706f6f6c0000000000000000000000000000000000000000000000602082015250565b6000610f28602983610e29565b9150610f3382610ecc565b604082019050919050565b60006020820190508181036000830152610f5781610f1b565b9050919050565b7f4e487b7100000000000000000000000000000000000000000000000000000000600052601160045260246000fd5b6000610f9882610c85565b9150610fa383610c85565b925082821015610fb657610fb5610f5e565b5b828203905092915050565b6000604082019050610fd66000830185610d8b565b610fe36020830184610c8f565b9392505050565b60008115159050919050565b610fff81610fea565b811461100a57600080fd5b50565b60008151905061101c81610ff6565b92915050565b60006020828403121561103857611037610cc7565b5b60006110468482850161100d565b91505092915050565b600069ffffffffffffffffffff82169050919050565b61106e8161104f565b811461107957600080fd5b50565b60008151905061108b81611065565b92915050565b61109a81610d25565b81146110a557600080fd5b50565b6000815190506110b781611091565b92915050565b6000815190506110cc81610ccc565b92915050565b600080600080600060a086880312156110ee576110ed610cc7565b5b60006110fc8882890161107c565b955050602061110d888289016110a8565b945050604061111e888289016110bd565b935050606061112f888289016110bd565b92505060806111408882890161107c565b9150509295509295909350565b7f4f776e61626c653a2063616c6c6572206973206e6f7420746865206f776e6572600082015250565b6000611183602083610e29565b915061118e8261114d565b602082019050919050565b600060208201905081810360008301526111b281611176565b9050919050565b60006060820190506111ce6000830186610d8b565b6111db6020830185610d8b565b6111e86040830184610c8f565b949350505050565b60006111fb82610c85565b915061120683610c85565b9250827fffffffffffffffffffffffffffffffffffffffffffffffffffffffffffffffff0382111561123b5761123a610f5e565b5b828201905092915050565b7f4e6f2072657761726420746f20636c61696d0000000000000000000000000000600082015250565b600061127c601283610e29565b915061128782611246565b602082019050919050565b600060208201905081810360008301526112ab8161126f565b9050919050565b7f4f776e61626c653a206e6577206f776e657220697320746865207a65726f206160008201527f6464726573730000000000000000000000000000000000000000000000000000602082015250565b600061130e602683610e29565b9150611319826112b2565b604082019050919050565b6000602082019050818103600083015261133d81611301565b9050919050565b600061134f82610c85565b915061135a83610c85565b9250817fffffffffffffffffffffffffffffffffffffffffffffffffffffffffffffffff048311821515161561139357611392610f5e565b5b828202905092915050565b7f4e487b7100000000000000000000000000000000000000000000000000000000600052601260045260246000fd5b60006113d882610c85565b91506113e383610c85565b9250826113f3576113f261139e565b5b82820490509291505056fea2646970667358221220485d9ad9040ef5135064fa0f0599f1e67fed8d4a016aeb813266c5394d486e6264736f6c634300080d0033",
  "immutableReferences": {},
  "source": "// SPDX-License-Identifier: GPL-3.0\r\n\r\npragma solidity 0.8.13;\r\n\r\nimport \"@openzeppelin/contracts/access/Ownable.sol\";\r\nimport \"@openzeppelin/contracts/token/ERC20/IERC20.sol\";\r\nimport \"@chainlink/contracts/src/v0.8/interfaces/AggregatorV3Interface.sol\";\r\n\r\n/**\r\n * @title Hello World DeFi Protocol\r\n * @author The Hello World Team\r\n * @notice This contract offer the possibility to stake ERC20 in Liquidity Pools to receive Hello World Token rewards\r\n */\r\ncontract DeFiProtocol is Ownable {\r\n\r\n\r\n    // :::::::::::::: Struct ::::::::::::::: //\r\n\r\n    /**\r\n     * @notice This struct contains the data of a Staker\r\n     */\r\n    struct StakerData {\r\n        uint256 stakedAmount; \r\n        uint256 updateTimestamp;\r\n        uint256 reward;\r\n    }\r\n\r\n\r\n    // ::::::::::::: Properties ::::::::::::: //\r\n\r\n    /**\r\n     * @notice This mapping store the amount of liquidity and reward by address\r\n     */\r\n    mapping(address => StakerData) stakerDataPerAddress;\r\n\r\n    /**\r\n     * @notice The Total Value Locked(TVL) of the liquidity pool\r\n     * @dev The TVL is public because front may want to display it\r\n     */\r\n    uint256 public totalValueLocked = 0;\r\n    \r\n    /**\r\n     * @notice The Token to store in the liquidity pool\r\n     * @dev Initialized on the constructor\r\n     */\r\n    IERC20 token;\r\n\r\n    /**\r\n     * @notice Retrieve the token price\r\n     * @dev Use Chainlink to retrieve the USD price of the token\r\n     */\r\n    AggregatorV3Interface internal priceFeed;\r\n\r\n    /**\r\n     * @notice Token multiplier to give a price on the Hwt token\r\n     * @dev As our Hwt token don't have any value on the market, we use a basic multiplier\r\n     */\r\n    uint hwtTokenUsdValue = 931500000000000000;\r\n\r\n    uint rewardPerSecond = 925925925925;\r\n\r\n    // ::::::::::::: Modifiers ::::::::::::: //\r\n\r\n    /**\r\n     * @notice Modifier that allow only amount greater than zero to be staked or unstaked\r\n     */\r\n    modifier onlyAmountGreaterThanZero(uint _amount) {\r\n        require(_amount > 0, \"Only amount above zero are authorized\");\r\n        _;\r\n    }\r\n\r\n    // ::::::::::::: Events ::::::::::::: //\r\n\r\n    /**\r\n     * @notice Event informing total amount staked in the Liquidity Pool\r\n     * @param stakedAmount The amount that has been staked\r\n     */\r\n    event AmountStaked (uint stakedAmount);\r\n\r\n    /**\r\n     * @notice Event informing an amount was unstaked in the Liquidity Pool\r\n     * @param unstakedAmount The amount that has been unstaked\r\n     */\r\n    event AmountUnstaked (uint unstakedAmount);\r\n\r\n    /** \r\n     * @notice Event informing a reward was send\r\n     * @param rewardClaimedAmount The amount that has been offered\r\n     */\r\n    event RewardOffered (uint rewardClaimedAmount);\r\n\r\n    // ::::::::::::: Methods ::::::::::::: //\r\n\r\n    /**\r\n     * @notice Create erc20 instance that will be used for the liquidity pool\r\n     * @param _tokenAddress the smart contract address of the erc20 token\r\n     */\r\n    constructor(address _tokenAddress) {\r\n        token = IERC20(_tokenAddress);\r\n        // Link/USD price feed\r\n        priceFeed = AggregatorV3Interface(0x2c1d072e956AFFC0D435Cb7AC38EF18d24d9127c);\r\n    }\r\n\r\n    /**\r\n     * @notice Stake token in the Liquidity pool\r\n     * @dev Refresh the stored amount in the address mapping storedValuePerAddress and refresh the TVL\r\n     * @param _amount Total amount to store in the liquidity pool\r\n     */\r\n    function stake(uint _amount) payable external onlyAmountGreaterThanZero(_amount) {\r\n        \r\n        token.transferFrom(msg.sender, address(this), _amount);\r\n\r\n        // Update the locked amount of the sender\r\n        StakerData storage stakerData = stakerDataPerAddress[msg.sender];\r\n\r\n        // if tokens are already stored, update reward before the new stake\r\n        if(stakerData.stakedAmount > 0) {\r\n            stakerData.reward = computeReward(stakerData);\r\n        }\r\n\r\n        stakerData.stakedAmount = stakerData.stakedAmount + _amount;\r\n        stakerData.updateTimestamp = block.timestamp; \r\n\r\n        // Update the tvl of the liquidity pool\r\n        totalValueLocked = totalValueLocked  + _amount;\r\n\r\n        emit AmountStaked(stakerData.stakedAmount);\r\n    }\r\n\r\n    /**\r\n     * @notice Unstake the tokens in the Liquidity pool, user can retrieve their tokens\r\n     * @dev Refresh the stored amount in the address mapping stakerDataPerAddress and refresh the TVL\r\n     * @param _amount Total amount to unstake from the liquidity pool\r\n     */\r\n    function unstake(uint256 _amount) payable external onlyAmountGreaterThanZero(_amount) {\r\n        \r\n        StakerData storage stakerData = stakerDataPerAddress[msg.sender];\r\n        \r\n        // Check if the sender have this amount in pool\r\n        require(_amount <= stakerData.stakedAmount, \"You didn't stored this amount in the pool\");\r\n\r\n        // Update the reward first ! Then update staked amount and timestamp\r\n        stakerData.reward = computeReward(stakerData);\r\n\r\n        stakerData.stakedAmount = stakerData.stakedAmount - _amount;\r\n        stakerData.updateTimestamp = block.timestamp;\r\n\r\n        // Update the tvl of the liquidity pool\r\n        totalValueLocked = totalValueLocked  - _amount;\r\n\r\n        // Send the token back to the sender\r\n        token.transfer(msg.sender, _amount);\r\n        \r\n        emit AmountUnstaked(_amount);\r\n    }\r\n\r\n    /**\r\n     * @notice Get the msg.sender token staked amount\r\n     * @return stakedAmount token staked by msg.sender\r\n     */\r\n    function getStakedAmount() external view returns (uint stakedAmount) {\r\n        return(stakerDataPerAddress[msg.sender].stakedAmount);\r\n    }\r\n\r\n    function getTimeStamp() external view returns (uint actualStamp, uint userStamp) {\r\n        return(block.timestamp, stakerDataPerAddress[msg.sender].updateTimestamp);\r\n    }\r\n\r\n    /**\r\n     * @notice Get the token price in USD\r\n     * @dev USD Price is retrieved thanks to Chainlink\r\n     * @dev Can't be unit tested because of Ganache\r\n     * @return tokenPrice price of the token\r\n     */\r\n    function getTokenPrice() external view returns (int tokenPrice) {\r\n\r\n        (\r\n            /* uint80 roundID */,\r\n            int price,\r\n            /* uint256 startedAt, */,\r\n            /* uint256 timeStamp, */,\r\n            /* uint80 answeredInRound */\r\n        ) = priceFeed.latestRoundData();\r\n\r\n        return(price);\r\n    }\r\n\r\n    /**\r\n     * @notice Get the reward for msg.sender\r\n     * @dev lastUpdateAmount return the last time a stake has been done, useful to compute reward on a frontend app\r\n     * @return reward The reward computed by the contract\r\n     * @return hwtUsdValue The Usd value of the reward\r\n     */\r\n    function getRewardAmount() external view returns (uint reward, uint hwtUsdValue) {\r\n        return(computeReward(stakerDataPerAddress[msg.sender]), hwtTokenUsdValue);\r\n    }\r\n\r\n    /**\r\n     * @notice Compute the reward depending on time and existant reward\r\n     * @dev Timestamp are in seconds\r\n     * @param _stakerData Data of the staker\r\n     * @return rewardAmount The computed reward amount\r\n     */\r\n    function computeReward(StakerData memory _stakerData) private view returns(uint rewardAmount) {\r\n        \r\n        uint reward = ((block.timestamp - _stakerData.updateTimestamp) * rewardPerSecond * _stakerData.stakedAmount);\r\n\r\n        if(reward > 0) {\r\n            return _stakerData.reward + (reward / 1e18);\r\n        }\r\n        else {\r\n            return _stakerData.reward;\r\n        }\r\n    }\r\n\r\n    /**\r\n     * @notice Send then reward to the msg.sender\r\n     */\r\n    function claimReward() external {\r\n\r\n        StakerData storage stakerData = stakerDataPerAddress[msg.sender];\r\n\r\n        // Compute the reward\r\n        uint reward = computeReward(stakerData);\r\n\r\n        require(reward > 0, \"No reward to claim\");\r\n        \r\n        // Update the timestamp and the reward amount\r\n        stakerData.updateTimestamp = block.timestamp;\r\n        stakerData.reward = 0;\r\n\r\n        // Send reward tokens to the msg.sender\r\n        token.transfer(msg.sender, reward);\r\n\r\n        emit RewardOffered(reward);\r\n    }\r\n}",
  "sourcePath": "C:\\Users\\Skyclad93\\OneDrive\\Bureau\\DEfi\\DeFi-Liquidity-Pool\\contracts\\DeFiProtocol.sol",
  "compiler": {
    "name": "solc",
    "version": "0.8.13+commit.abaa5c0e.Emscripten.clang"
  },
  "schemaVersion": "3.4.7",
  "updatedAt": "2022-05-07T22:13:46.116Z",
  "networkType": "ethereum",
  "devdoc": {
    "author": "The Hello World Team",
    "events": {
      "AmountStaked(uint256)": {
        "params": {
          "stakedAmount": "The amount that has been staked"
        }
      },
      "AmountUnstaked(uint256)": {
        "params": {
          "unstakedAmount": "The amount that has been unstaked"
        }
      },
      "RewardOffered(uint256)": {
        "params": {
          "rewardClaimedAmount": "The amount that has been offered"
        }
      }
    },
    "kind": "dev",
    "methods": {
      "constructor": {
        "params": {
          "_tokenAddress": "the smart contract address of the erc20 token"
        }
      },
      "getRewardAmount()": {
        "details": "lastUpdateAmount return the last time a stake has been done, useful to compute reward on a frontend app",
        "returns": {
          "hwtUsdValue": "The Usd value of the reward",
          "reward": "The reward computed by the contract"
        }
      },
      "getStakedAmount()": {
        "returns": {
          "stakedAmount": "token staked by msg.sender"
        }
      },
      "getTokenPrice()": {
        "details": "USD Price is retrieved thanks to ChainlinkCan't be unit tested because of Ganache",
        "returns": {
          "tokenPrice": "price of the token"
        }
      },
      "owner()": {
        "details": "Returns the address of the current owner."
      },
      "renounceOwnership()": {
        "details": "Leaves the contract without owner. It will not be possible to call `onlyOwner` functions anymore. Can only be called by the current owner. NOTE: Renouncing ownership will leave the contract without an owner, thereby removing any functionality that is only available to the owner."
      },
      "stake(uint256)": {
        "details": "Refresh the stored amount in the address mapping storedValuePerAddress and refresh the TVL",
        "params": {
          "_amount": "Total amount to store in the liquidity pool"
        }
      },
      "transferOwnership(address)": {
        "details": "Transfers ownership of the contract to a new account (`newOwner`). Can only be called by the current owner."
      },
      "unstake(uint256)": {
        "details": "Refresh the stored amount in the address mapping stakerDataPerAddress and refresh the TVL",
        "params": {
          "_amount": "Total amount to unstake from the liquidity pool"
        }
      }
    },
    "stateVariables": {
      "hwtTokenUsdValue": {
        "details": "As our Hwt token don't have any value on the market, we use a basic multiplier"
      },
      "priceFeed": {
        "details": "Use Chainlink to retrieve the USD price of the token"
      },
      "token": {
        "details": "Initialized on the constructor"
      },
      "totalValueLocked": {
        "details": "The TVL is public because front may want to display it"
      }
    },
    "title": "Hello World DeFi Protocol",
    "version": 1
  },
  "userdoc": {
    "events": {
      "AmountStaked(uint256)": {
        "notice": "Event informing total amount staked in the Liquidity Pool"
      },
      "AmountUnstaked(uint256)": {
        "notice": "Event informing an amount was unstaked in the Liquidity Pool"
      },
      "RewardOffered(uint256)": {
        "notice": "Event informing a reward was send"
      }
    },
    "kind": "user",
    "methods": {
      "claimReward()": {
        "notice": "Send then reward to the msg.sender"
      },
      "constructor": {
        "notice": "Create erc20 instance that will be used for the liquidity pool"
      },
      "getRewardAmount()": {
        "notice": "Get the reward for msg.sender"
      },
      "getStakedAmount()": {
        "notice": "Get the msg.sender token staked amount"
      },
      "getTokenPrice()": {
        "notice": "Get the token price in USD"
      },
      "stake(uint256)": {
        "notice": "Stake token in the Liquidity pool"
      },
      "totalValueLocked()": {
        "notice": "The Total Value Locked(TVL) of the liquidity pool"
      },
      "unstake(uint256)": {
        "notice": "Unstake the tokens in the Liquidity pool, user can retrieve their tokens"
      }
    },
    "notice": "This contract offer the possibility to stake ERC20 in Liquidity Pools to receive Hello World Token rewards",
    "version": 1
  }
}