{
  "contractName": "DeFiProtocol",
  "abi": [
    {
      "anonymous": false,
      "inputs": [
        {
          "indexed": false,
          "internalType": "address",
          "name": "approver",
          "type": "address"
        },
        {
          "indexed": false,
          "internalType": "address",
          "name": "spender",
          "type": "address"
        },
        {
          "indexed": false,
          "internalType": "uint256",
          "name": "amount",
          "type": "uint256"
        }
      ],
      "name": "Approval",
      "type": "event"
    },
    {
      "anonymous": false,
      "inputs": [
        {
          "indexed": true,
          "internalType": "address",
          "name": "previousOwner",
          "type": "address"
        },
        {
          "indexed": true,
          "internalType": "address",
          "name": "newOwner",
          "type": "address"
        }
      ],
      "name": "OwnershipTransferred",
      "type": "event"
    },
    {
      "inputs": [],
      "name": "ETH",
      "outputs": [
        {
          "internalType": "address",
          "name": "",
          "type": "address"
        }
      ],
      "stateMutability": "view",
      "type": "function",
      "constant": true
    },
    {
      "inputs": [],
      "name": "ethPoolTotalAmount",
      "outputs": [
        {
          "internalType": "uint256",
          "name": "",
          "type": "uint256"
        }
      ],
      "stateMutability": "view",
      "type": "function",
      "constant": true
    },
    {
      "inputs": [],
      "name": "owner",
      "outputs": [
        {
          "internalType": "address",
          "name": "",
          "type": "address"
        }
      ],
      "stateMutability": "view",
      "type": "function",
      "constant": true
    },
    {
      "inputs": [],
      "name": "renounceOwnership",
      "outputs": [],
      "stateMutability": "nonpayable",
      "type": "function"
    },
    {
      "inputs": [
        {
          "internalType": "address",
          "name": "newOwner",
          "type": "address"
        }
      ],
      "name": "transferOwnership",
      "outputs": [],
      "stateMutability": "nonpayable",
      "type": "function"
    },
    {
      "inputs": [
        {
          "internalType": "address",
          "name": "spender",
          "type": "address"
        },
        {
          "internalType": "uint256",
          "name": "amount",
          "type": "uint256"
        }
      ],
      "name": "approve",
      "outputs": [
        {
          "internalType": "bool",
          "name": "",
          "type": "bool"
        }
      ],
      "stateMutability": "nonpayable",
      "type": "function"
    },
    {
      "inputs": [
        {
          "internalType": "uint256",
          "name": "_amount",
          "type": "uint256"
        }
      ],
      "name": "stakeEthTokens",
      "outputs": [
        {
          "internalType": "bool",
          "name": "",
          "type": "bool"
        }
      ],
      "stateMutability": "payable",
      "type": "function",
      "payable": true
    }
  ],
  "bytecode": "0x6080604052600060025573c02aaa39b223fe8d0a0e5c4f27ead9083c756cc2600360006101000a81548173ffffffffffffffffffffffffffffffffffffffff021916908373ffffffffffffffffffffffffffffffffffffffff160217905550600360009054906101000a900473ffffffffffffffffffffffffffffffffffffffff16600460006101000a81548173ffffffffffffffffffffffffffffffffffffffff021916908373ffffffffffffffffffffffffffffffffffffffff1602179055503480156100cd57600080fd5b506100ea6100df6100ef60201b60201c565b6100f760201b60201c565b6101bb565b600033905090565b60008060009054906101000a900473ffffffffffffffffffffffffffffffffffffffff169050816000806101000a81548173ffffffffffffffffffffffffffffffffffffffff021916908373ffffffffffffffffffffffffffffffffffffffff1602179055508173ffffffffffffffffffffffffffffffffffffffff168173ffffffffffffffffffffffffffffffffffffffff167f8be0079c531659141344cd1fd0a4f28419497f9722a3daafe3b4186f6b6457e060405160405180910390a35050565b610b8b806101ca6000396000f3fe6080604052600436106100705760003560e01c80638322fff21161004e5780638322fff2146100f95780638da5cb5b14610124578063d22a9fe91461014f578063f2fde38b1461017a57610070565b8063095ea7b3146100755780633c7f4a34146100b2578063715018a6146100e2575b600080fd5b34801561008157600080fd5b5061009c60048036038101906100979190610752565b6101a3565b6040516100a991906107ad565b60405180910390f35b6100cc60048036038101906100c791906107c8565b61028b565b6040516100d991906107ad565b60405180910390f35b3480156100ee57600080fd5b506100f7610419565b005b34801561010557600080fd5b5061010e6104a1565b60405161011b9190610804565b60405180910390f35b34801561013057600080fd5b506101396104c7565b6040516101469190610804565b60405180910390f35b34801561015b57600080fd5b506101646104f0565b604051610171919061082e565b60405180910390f35b34801561018657600080fd5b506101a1600480360381019061019c9190610849565b6104f6565b005b6000600460009054906101000a900473ffffffffffffffffffffffffffffffffffffffff1673ffffffffffffffffffffffffffffffffffffffff1663095ea7b384846040518363ffffffff1660e01b8152600401610202929190610876565b6020604051808303816000875af1158015610221573d6000803e3d6000fd5b505050506040513d601f19601f8201168201806040525081019061024591906108cb565b507f8c5be1e5ebec7d5bd14f71427d1e84f3dd0314c0f7b2291e5b200ac8c7c3b925338484604051610279939291906108f8565b60405180910390a16001905092915050565b6000600460009054906101000a900473ffffffffffffffffffffffffffffffffffffffff1673ffffffffffffffffffffffffffffffffffffffff166323b872dd3330856040518463ffffffff1660e01b81526004016102ec939291906108f8565b6020604051808303816000875af115801561030b573d6000803e3d6000fd5b505050506040513d601f19601f8201168201806040525081019061032f91906108cb565b61036e576040517f08c379a0000000000000000000000000000000000000000000000000000000008152600401610365906109b2565b60405180910390fd5b8160025461037c9190610a01565b60028190555081600160003373ffffffffffffffffffffffffffffffffffffffff1673ffffffffffffffffffffffffffffffffffffffff168152602001908152602001600020546103cd9190610a01565b600160003373ffffffffffffffffffffffffffffffffffffffff1673ffffffffffffffffffffffffffffffffffffffff1681526020019081526020016000208190555060019050919050565b6104216105ed565b73ffffffffffffffffffffffffffffffffffffffff1661043f6104c7565b73ffffffffffffffffffffffffffffffffffffffff1614610495576040517f08c379a000000000000000000000000000000000000000000000000000000000815260040161048c90610aa3565b60405180910390fd5b61049f60006105f5565b565b600360009054906101000a900473ffffffffffffffffffffffffffffffffffffffff1681565b60008060009054906101000a900473ffffffffffffffffffffffffffffffffffffffff16905090565b60025481565b6104fe6105ed565b73ffffffffffffffffffffffffffffffffffffffff1661051c6104c7565b73ffffffffffffffffffffffffffffffffffffffff1614610572576040517f08c379a000000000000000000000000000000000000000000000000000000000815260040161056990610aa3565b60405180910390fd5b600073ffffffffffffffffffffffffffffffffffffffff168173ffffffffffffffffffffffffffffffffffffffff16036105e1576040517f08c379a00000000000000000000000000000000000000000000000000000000081526004016105d890610b35565b60405180910390fd5b6105ea816105f5565b50565b600033905090565b60008060009054906101000a900473ffffffffffffffffffffffffffffffffffffffff169050816000806101000a81548173ffffffffffffffffffffffffffffffffffffffff021916908373ffffffffffffffffffffffffffffffffffffffff1602179055508173ffffffffffffffffffffffffffffffffffffffff168173ffffffffffffffffffffffffffffffffffffffff167f8be0079c531659141344cd1fd0a4f28419497f9722a3daafe3b4186f6b6457e060405160405180910390a35050565b600080fd5b600073ffffffffffffffffffffffffffffffffffffffff82169050919050565b60006106e9826106be565b9050919050565b6106f9816106de565b811461070457600080fd5b50565b600081359050610716816106f0565b92915050565b6000819050919050565b61072f8161071c565b811461073a57600080fd5b50565b60008135905061074c81610726565b92915050565b60008060408385031215610769576107686106b9565b5b600061077785828601610707565b92505060206107888582860161073d565b9150509250929050565b60008115159050919050565b6107a781610792565b82525050565b60006020820190506107c2600083018461079e565b92915050565b6000602082840312156107de576107dd6106b9565b5b60006107ec8482850161073d565b91505092915050565b6107fe816106de565b82525050565b600060208201905061081960008301846107f5565b92915050565b6108288161071c565b82525050565b6000602082019050610843600083018461081f565b92915050565b60006020828403121561085f5761085e6106b9565b5b600061086d84828501610707565b91505092915050565b600060408201905061088b60008301856107f5565b610898602083018461081f565b9392505050565b6108a881610792565b81146108b357600080fd5b50565b6000815190506108c58161089f565b92915050565b6000602082840312156108e1576108e06106b9565b5b60006108ef848285016108b6565b91505092915050565b600060608201905061090d60008301866107f5565b61091a60208301856107f5565b610927604083018461081f565b949350505050565b600082825260208201905092915050565b7f596f7520646f6e2774206861766520656e6f7567682045544820696e20796f7560008201527f722077616c6c657420666f722074686973207472616e73616374696f6e000000602082015250565b600061099c603d8361092f565b91506109a782610940565b604082019050919050565b600060208201905081810360008301526109cb8161098f565b9050919050565b7f4e487b7100000000000000000000000000000000000000000000000000000000600052601160045260246000fd5b6000610a0c8261071c565b9150610a178361071c565b9250827fffffffffffffffffffffffffffffffffffffffffffffffffffffffffffffffff03821115610a4c57610a4b6109d2565b5b828201905092915050565b7f4f776e61626c653a2063616c6c6572206973206e6f7420746865206f776e6572600082015250565b6000610a8d60208361092f565b9150610a9882610a57565b602082019050919050565b60006020820190508181036000830152610abc81610a80565b9050919050565b7f4f776e61626c653a206e6577206f776e657220697320746865207a65726f206160008201527f6464726573730000000000000000000000000000000000000000000000000000602082015250565b6000610b1f60268361092f565b9150610b2a82610ac3565b604082019050919050565b60006020820190508181036000830152610b4e81610b12565b905091905056fea2646970667358221220e654c2e1852d51e73888b5e2a76d44a65e0f5811f65a4b8fb872378d83c1a05d64736f6c634300080d0033",
  "immutableReferences": {},
  "source": "// SPDX-License-Identifier: GPL-3.0\r\n\r\npragma solidity 0.8.13;\r\n\r\nimport \"@openzeppelin/contracts/access/Ownable.sol\";\r\nimport \"@openzeppelin/contracts/token/ERC20/IERC20.sol\";\r\n\r\n/**\r\n * @title Hello World DeFi Protocol\r\n * @author The Hello World Team\r\n * @notice This contract offer the possibility to stake ERC20 in Liquidity Pools to receive Hello World Token rewards\r\n */\r\ncontract DeFiProtocol is Ownable {\r\n\r\n    /**\r\n     * @notice This mapping store the amount of eth by address\r\n     */\r\n    mapping(address => uint256) ethPoolAddressBalances;\r\n\r\n    /**\r\n     * @notice The total amount stored in the liquidity pool\r\n     */\r\n    uint256 public ethPoolTotalAmount = 0;\r\n\r\n    address public ETH = 0xC02aaA39b223FE8D0A0e5C4F27eAD9083C756Cc2;\r\n    \r\n    event Approval(address approver, address spender, uint256 amount);\r\n    \r\n    /**\r\n     * @notice The ETH Token address\r\n     */\r\n    IERC20 private ethToken = IERC20(ETH);\r\n\r\n    function approve(address spender, uint256 amount) public returns (bool) {\r\n        ethToken.approve(spender, amount);\r\n        emit Approval(msg.sender, spender, amount);\r\n        return true;\r\n    }\r\n\r\n    /**\r\n     * @notice Allow to store eth in the Eth Liquidity pool\r\n     * @dev Refresh the stored amount in the address mapping ethPoolAddressBalances and refresh the total balance of the pool ethPoolTotalAmount\r\n     * @param _amount Total amount to store in the eth liquidity pool\r\n     */\r\n    function stakeEthTokens(uint256 _amount) payable external returns(bool) {\r\n\r\n        require(ethToken.transferFrom(msg.sender, address(this), _amount), \"You don't have enough ETH in your wallet for this transaction\");\r\n\r\n        ethPoolTotalAmount = ethPoolTotalAmount  + _amount;\r\n        ethPoolAddressBalances[msg.sender] = ethPoolAddressBalances[msg.sender] + _amount;\r\n        return true;\r\n    }\r\n}",
  "sourcePath": "/mnt/d/Alyra/DeFi-Liquidity-Pool/contracts/DeFiProtocol.sol",
  "compiler": {
    "name": "solc",
    "version": "0.8.13+commit.abaa5c0e.Emscripten.clang"
  },
  "schemaVersion": "3.4.6",
  "updatedAt": "2022-05-04T20:31:23.876Z",
  "networkType": "ethereum",
  "devdoc": {
    "author": "The Hello World Team",
    "kind": "dev",
    "methods": {
      "owner()": {
        "details": "Returns the address of the current owner."
      },
      "renounceOwnership()": {
        "details": "Leaves the contract without owner. It will not be possible to call `onlyOwner` functions anymore. Can only be called by the current owner. NOTE: Renouncing ownership will leave the contract without an owner, thereby removing any functionality that is only available to the owner."
      },
      "stakeEthTokens(uint256)": {
        "details": "Refresh the stored amount in the address mapping ethPoolAddressBalances and refresh the total balance of the pool ethPoolTotalAmount",
        "params": {
          "_amount": "Total amount to store in the eth liquidity pool"
        }
      },
      "transferOwnership(address)": {
        "details": "Transfers ownership of the contract to a new account (`newOwner`). Can only be called by the current owner."
      }
    },
    "title": "Hello World DeFi Protocol",
    "version": 1
  },
  "userdoc": {
    "kind": "user",
    "methods": {
      "ethPoolTotalAmount()": {
        "notice": "The total amount stored in the liquidity pool"
      },
      "stakeEthTokens(uint256)": {
        "notice": "Allow to store eth in the Eth Liquidity pool"
      }
    },
    "notice": "This contract offer the possibility to stake ERC20 in Liquidity Pools to receive Hello World Token rewards",
    "version": 1
  }
}