{
  "contractName": "DeFiProtocol",
  "abi": [
    {
      "inputs": [
        {
          "internalType": "address",
          "name": "_tokenAddress",
          "type": "address"
        }
      ],
      "stateMutability": "nonpayable",
      "type": "constructor"
    },
    {
      "anonymous": false,
      "inputs": [
        {
          "indexed": false,
          "internalType": "uint256",
          "name": "stakedAmount",
          "type": "uint256"
        }
      ],
      "name": "AmountStaked",
      "type": "event"
    },
    {
      "anonymous": false,
      "inputs": [
        {
          "indexed": false,
          "internalType": "uint256",
          "name": "unstakedAmount",
          "type": "uint256"
        }
      ],
      "name": "AmountUnstaked",
      "type": "event"
    },
    {
      "anonymous": false,
      "inputs": [
        {
          "indexed": true,
          "internalType": "address",
          "name": "previousOwner",
          "type": "address"
        },
        {
          "indexed": true,
          "internalType": "address",
          "name": "newOwner",
          "type": "address"
        }
      ],
      "name": "OwnershipTransferred",
      "type": "event"
    },
    {
      "anonymous": false,
      "inputs": [
        {
          "indexed": false,
          "internalType": "uint256",
          "name": "rewardClaimedAmount",
          "type": "uint256"
        }
      ],
      "name": "RewardOffered",
      "type": "event"
    },
    {
      "inputs": [],
      "name": "hwtTokenUsdValue",
      "outputs": [
        {
          "internalType": "uint256",
          "name": "",
          "type": "uint256"
        }
      ],
      "stateMutability": "view",
      "type": "function",
      "constant": true
    },
    {
      "inputs": [],
      "name": "owner",
      "outputs": [
        {
          "internalType": "address",
          "name": "",
          "type": "address"
        }
      ],
      "stateMutability": "view",
      "type": "function",
      "constant": true
    },
    {
      "inputs": [],
      "name": "renounceOwnership",
      "outputs": [],
      "stateMutability": "nonpayable",
      "type": "function"
    },
    {
      "inputs": [],
      "name": "totalValueLocked",
      "outputs": [
        {
          "internalType": "uint256",
          "name": "",
          "type": "uint256"
        }
      ],
      "stateMutability": "view",
      "type": "function",
      "constant": true
    },
    {
      "inputs": [
        {
          "internalType": "address",
          "name": "newOwner",
          "type": "address"
        }
      ],
      "name": "transferOwnership",
      "outputs": [],
      "stateMutability": "nonpayable",
      "type": "function"
    },
    {
      "inputs": [
        {
          "internalType": "uint256",
          "name": "_amount",
          "type": "uint256"
        }
      ],
      "name": "stake",
      "outputs": [],
      "stateMutability": "payable",
      "type": "function",
      "payable": true
    },
    {
      "inputs": [
        {
          "internalType": "uint256",
          "name": "_amount",
          "type": "uint256"
        }
      ],
      "name": "unstake",
      "outputs": [],
      "stateMutability": "payable",
      "type": "function",
      "payable": true
    },
    {
      "inputs": [],
      "name": "getStakedAmount",
      "outputs": [
        {
          "internalType": "uint256",
          "name": "stakedAmount",
          "type": "uint256"
        }
      ],
      "stateMutability": "view",
      "type": "function",
      "constant": true
    },
    {
      "inputs": [],
      "name": "getTimeStamp",
      "outputs": [
        {
          "internalType": "uint256",
          "name": "actualStamp",
          "type": "uint256"
        },
        {
          "internalType": "uint256",
          "name": "userStamp",
          "type": "uint256"
        }
      ],
      "stateMutability": "view",
      "type": "function",
      "constant": true
    },
    {
      "inputs": [],
      "name": "getTokenPrice",
      "outputs": [
        {
          "internalType": "int256",
          "name": "tokenPrice",
          "type": "int256"
        }
      ],
      "stateMutability": "view",
      "type": "function",
      "constant": true
    },
    {
      "inputs": [],
      "name": "getRewardAmount",
      "outputs": [
        {
          "internalType": "uint256",
          "name": "reward",
          "type": "uint256"
        }
      ],
      "stateMutability": "view",
      "type": "function",
      "constant": true
    },
    {
      "inputs": [],
      "name": "claimReward",
      "outputs": [],
      "stateMutability": "nonpayable",
      "type": "function"
    }
  ],
  "bytecode": "0x6080604052670ced5a509046c00060055564d7957c64256006553480156200002657600080fd5b50604051620016e9380380620016e983398181016040528101906200004c91906200023f565b6200006c620000606200010960201b60201c565b6200011160201b60201c565b80600360006101000a81548173ffffffffffffffffffffffffffffffffffffffff021916908373ffffffffffffffffffffffffffffffffffffffff160217905550732c1d072e956affc0d435cb7ac38ef18d24d9127c600460006101000a81548173ffffffffffffffffffffffffffffffffffffffff021916908373ffffffffffffffffffffffffffffffffffffffff1602179055505062000271565b600033905090565b60008060009054906101000a900473ffffffffffffffffffffffffffffffffffffffff169050816000806101000a81548173ffffffffffffffffffffffffffffffffffffffff021916908373ffffffffffffffffffffffffffffffffffffffff1602179055508173ffffffffffffffffffffffffffffffffffffffff168173ffffffffffffffffffffffffffffffffffffffff167f8be0079c531659141344cd1fd0a4f28419497f9722a3daafe3b4186f6b6457e060405160405180910390a35050565b600080fd5b600073ffffffffffffffffffffffffffffffffffffffff82169050919050565b60006200020782620001da565b9050919050565b6200021981620001fa565b81146200022557600080fd5b50565b60008151905062000239816200020e565b92915050565b600060208284031215620002585762000257620001d5565b5b6000620002688482850162000228565b91505092915050565b61146880620002816000396000f3fe6080604052600436106100a75760003560e01c8063a4e15db911610064578063a4e15db91461018b578063a694fc3a146101b6578063b88a802f146101d2578063da235b22146101e9578063ec18154e14610215578063f2fde38b14610240576100a7565b806309a69f57146100ac5780632e17de78146100d75780634b94f50e146100f3578063715018a61461011e5780637cd9e6aa146101355780638da5cb5b14610160575b600080fd5b3480156100b857600080fd5b506100c1610269565b6040516100ce9190610cd2565b60405180910390f35b6100f160048036038101906100ec9190610d1e565b6102e0565b005b3480156100ff57600080fd5b506101086104fa565b6040516101159190610d64565b60405180910390f35b34801561012a57600080fd5b5061013361059b565b005b34801561014157600080fd5b5061014a610623565b6040516101579190610cd2565b60405180910390f35b34801561016c57600080fd5b50610175610629565b6040516101829190610dc0565b60405180910390f35b34801561019757600080fd5b506101a0610652565b6040516101ad9190610cd2565b60405180910390f35b6101d060048036038101906101cb9190610d1e565b61069c565b005b3480156101de57600080fd5b506101e7610883565b005b3480156101f557600080fd5b506101fe610a2e565b60405161020c929190610ddb565b60405180910390f35b34801561022157600080fd5b5061022a610a7d565b6040516102379190610cd2565b60405180910390f35b34801561024c57600080fd5b5061026760048036038101906102629190610e30565b610a83565b005b60006102db600160003373ffffffffffffffffffffffffffffffffffffffff1673ffffffffffffffffffffffffffffffffffffffff1681526020019081526020016000206040518060600160405290816000820154815260200160018201548152602001600282015481525050610b7a565b905090565b8060008111610324576040517f08c379a000000000000000000000000000000000000000000000000000000000815260040161031b90610ee0565b60405180910390fd5b6000600160003373ffffffffffffffffffffffffffffffffffffffff1673ffffffffffffffffffffffffffffffffffffffff168152602001908152602001600020905080600001548311156103ae576040517f08c379a00000000000000000000000000000000000000000000000000000000081526004016103a590610f72565b60405180910390fd5b6103e0816040518060600160405290816000820154815260200160018201548152602001600282015481525050610b7a565b81600201819055508281600001546103f89190610fc1565b8160000181905550428160010181905550826002546104179190610fc1565b600281905550600360009054906101000a900473ffffffffffffffffffffffffffffffffffffffff1673ffffffffffffffffffffffffffffffffffffffff1663a9059cbb33856040518363ffffffff1660e01b815260040161047a929190610ff5565b6020604051808303816000875af1158015610499573d6000803e3d6000fd5b505050506040513d601f19601f820116820180604052508101906104bd9190611056565b507f2f8effe7ffe0e306b06e4755a1a92f6d3bc946de9c4f6a406dbc132c86eb36d4836040516104ed9190610cd2565b60405180910390a1505050565b600080600460009054906101000a900473ffffffffffffffffffffffffffffffffffffffff1673ffffffffffffffffffffffffffffffffffffffff1663feaf968c6040518163ffffffff1660e01b815260040160a060405180830381865afa15801561056a573d6000803e3d6000fd5b505050506040513d601f19601f8201168201806040525081019061058e9190611106565b5050509150508091505090565b6105a3610bed565b73ffffffffffffffffffffffffffffffffffffffff166105c1610629565b73ffffffffffffffffffffffffffffffffffffffff1614610617576040517f08c379a000000000000000000000000000000000000000000000000000000000815260040161060e906111cd565b60405180910390fd5b6106216000610bf5565b565b60055481565b60008060009054906101000a900473ffffffffffffffffffffffffffffffffffffffff16905090565b6000600160003373ffffffffffffffffffffffffffffffffffffffff1673ffffffffffffffffffffffffffffffffffffffff16815260200190815260200160002060000154905090565b80600081116106e0576040517f08c379a00000000000000000000000000000000000000000000000000000000081526004016106d790610ee0565b60405180910390fd5b600360009054906101000a900473ffffffffffffffffffffffffffffffffffffffff1673ffffffffffffffffffffffffffffffffffffffff166323b872dd3330856040518463ffffffff1660e01b815260040161073f939291906111ed565b6020604051808303816000875af115801561075e573d6000803e3d6000fd5b505050506040513d601f19601f820116820180604052508101906107829190611056565b506000600160003373ffffffffffffffffffffffffffffffffffffffff1673ffffffffffffffffffffffffffffffffffffffff168152602001908152602001600020905060008160000154111561080e57610805816040518060600160405290816000820154815260200160018201548152602001600282015481525050610b7a565b81600201819055505b82816000015461081e9190611224565b81600001819055504281600101819055508260025461083d9190611224565b6002819055507fd8e1da2ea55fa9c4413c33f029c3f3fb5289e22eb1cab9d922ffb18f5d9a273e81600001546040516108769190610cd2565b60405180910390a1505050565b6000600160003373ffffffffffffffffffffffffffffffffffffffff1673ffffffffffffffffffffffffffffffffffffffff168152602001908152602001600020905060006108fa826040518060600160405290816000820154815260200160018201548152602001600282015481525050610b7a565b90506000811161093f576040517f08c379a0000000000000000000000000000000000000000000000000000000008152600401610936906112c6565b60405180910390fd5b42826001018190555060008260020181905550600360009054906101000a900473ffffffffffffffffffffffffffffffffffffffff1673ffffffffffffffffffffffffffffffffffffffff1663a9059cbb33836040518363ffffffff1660e01b81526004016109af929190610ff5565b6020604051808303816000875af11580156109ce573d6000803e3d6000fd5b505050506040513d601f19601f820116820180604052508101906109f29190611056565b507f39a5d140e3e3a18613a91b12d365dc0c589797b664f414f85ff68161ac6fbbb681604051610a229190610cd2565b60405180910390a15050565b60008042600160003373ffffffffffffffffffffffffffffffffffffffff1673ffffffffffffffffffffffffffffffffffffffff16815260200190815260200160002060010154915091509091565b60025481565b610a8b610bed565b73ffffffffffffffffffffffffffffffffffffffff16610aa9610629565b73ffffffffffffffffffffffffffffffffffffffff1614610aff576040517f08c379a0000000000000000000000000000000000000000000000000000000008152600401610af6906111cd565b60405180910390fd5b600073ffffffffffffffffffffffffffffffffffffffff168173ffffffffffffffffffffffffffffffffffffffff1603610b6e576040517f08c379a0000000000000000000000000000000000000000000000000000000008152600401610b6590611358565b60405180910390fd5b610b7781610bf5565b50565b6000808260000151600654846020015142610b959190610fc1565b610b9f9190611378565b610ba99190611378565b90506000811115610bdf57670de0b6b3a764000081610bc89190611401565b8360400151610bd79190611224565b915050610be8565b82604001519150505b919050565b600033905090565b60008060009054906101000a900473ffffffffffffffffffffffffffffffffffffffff169050816000806101000a81548173ffffffffffffffffffffffffffffffffffffffff021916908373ffffffffffffffffffffffffffffffffffffffff1602179055508173ffffffffffffffffffffffffffffffffffffffff168173ffffffffffffffffffffffffffffffffffffffff167f8be0079c531659141344cd1fd0a4f28419497f9722a3daafe3b4186f6b6457e060405160405180910390a35050565b6000819050919050565b610ccc81610cb9565b82525050565b6000602082019050610ce76000830184610cc3565b92915050565b600080fd5b610cfb81610cb9565b8114610d0657600080fd5b50565b600081359050610d1881610cf2565b92915050565b600060208284031215610d3457610d33610ced565b5b6000610d4284828501610d09565b91505092915050565b6000819050919050565b610d5e81610d4b565b82525050565b6000602082019050610d796000830184610d55565b92915050565b600073ffffffffffffffffffffffffffffffffffffffff82169050919050565b6000610daa82610d7f565b9050919050565b610dba81610d9f565b82525050565b6000602082019050610dd56000830184610db1565b92915050565b6000604082019050610df06000830185610cc3565b610dfd6020830184610cc3565b9392505050565b610e0d81610d9f565b8114610e1857600080fd5b50565b600081359050610e2a81610e04565b92915050565b600060208284031215610e4657610e45610ced565b5b6000610e5484828501610e1b565b91505092915050565b600082825260208201905092915050565b7f4f6e6c7920616d6f756e742061626f7665207a65726f2061726520617574686f60008201527f72697a6564000000000000000000000000000000000000000000000000000000602082015250565b6000610eca602583610e5d565b9150610ed582610e6e565b604082019050919050565b60006020820190508181036000830152610ef981610ebd565b9050919050565b7f596f75206469646e27742073746f726564207468697320616d6f756e7420696e60008201527f2074686520706f6f6c0000000000000000000000000000000000000000000000602082015250565b6000610f5c602983610e5d565b9150610f6782610f00565b604082019050919050565b60006020820190508181036000830152610f8b81610f4f565b9050919050565b7f4e487b7100000000000000000000000000000000000000000000000000000000600052601160045260246000fd5b6000610fcc82610cb9565b9150610fd783610cb9565b925082821015610fea57610fe9610f92565b5b828203905092915050565b600060408201905061100a6000830185610db1565b6110176020830184610cc3565b9392505050565b60008115159050919050565b6110338161101e565b811461103e57600080fd5b50565b6000815190506110508161102a565b92915050565b60006020828403121561106c5761106b610ced565b5b600061107a84828501611041565b91505092915050565b600069ffffffffffffffffffff82169050919050565b6110a281611083565b81146110ad57600080fd5b50565b6000815190506110bf81611099565b92915050565b6110ce81610d4b565b81146110d957600080fd5b50565b6000815190506110eb816110c5565b92915050565b60008151905061110081610cf2565b92915050565b600080600080600060a0868803121561112257611121610ced565b5b6000611130888289016110b0565b9550506020611141888289016110dc565b9450506040611152888289016110f1565b9350506060611163888289016110f1565b9250506080611174888289016110b0565b9150509295509295909350565b7f4f776e61626c653a2063616c6c6572206973206e6f7420746865206f776e6572600082015250565b60006111b7602083610e5d565b91506111c282611181565b602082019050919050565b600060208201905081810360008301526111e6816111aa565b9050919050565b60006060820190506112026000830186610db1565b61120f6020830185610db1565b61121c6040830184610cc3565b949350505050565b600061122f82610cb9565b915061123a83610cb9565b9250827fffffffffffffffffffffffffffffffffffffffffffffffffffffffffffffffff0382111561126f5761126e610f92565b5b828201905092915050565b7f4e6f2072657761726420746f20636c61696d0000000000000000000000000000600082015250565b60006112b0601283610e5d565b91506112bb8261127a565b602082019050919050565b600060208201905081810360008301526112df816112a3565b9050919050565b7f4f776e61626c653a206e6577206f776e657220697320746865207a65726f206160008201527f6464726573730000000000000000000000000000000000000000000000000000602082015250565b6000611342602683610e5d565b915061134d826112e6565b604082019050919050565b6000602082019050818103600083015261137181611335565b9050919050565b600061138382610cb9565b915061138e83610cb9565b9250817fffffffffffffffffffffffffffffffffffffffffffffffffffffffffffffffff04831182151516156113c7576113c6610f92565b5b828202905092915050565b7f4e487b7100000000000000000000000000000000000000000000000000000000600052601260045260246000fd5b600061140c82610cb9565b915061141783610cb9565b925082611427576114266113d2565b5b82820490509291505056fea26469706673582212209d162f0167e89a8aa59c8802c4c2e41ebb9d5557f9f87575be75d9ccf2a47bac64736f6c634300080d0033",
  "immutableReferences": {},
  "source": "// SPDX-License-Identifier: GPL-3.0\r\n\r\npragma solidity 0.8.13;\r\n\r\nimport \"@openzeppelin/contracts/access/Ownable.sol\";\r\nimport \"@openzeppelin/contracts/token/ERC20/IERC20.sol\";\r\nimport \"@chainlink/contracts/src/v0.8/interfaces/AggregatorV3Interface.sol\";\r\n\r\n/**\r\n * @title Hello World DeFi Protocol\r\n * @author The Hello World Team\r\n * @notice This contract offer the possibility to stake ERC20 in Liquidity Pools to receive Hello World Token rewards\r\n */\r\ncontract DeFiProtocol is Ownable {\r\n\r\n\r\n    // :::::::::::::: Struct ::::::::::::::: //\r\n\r\n    /**\r\n     * @notice This struct contains the data of a Staker\r\n     */\r\n    struct StakerData {\r\n        uint256 stakedAmount; \r\n        uint256 updateTimestamp;\r\n        uint256 reward;\r\n    }\r\n\r\n\r\n    // ::::::::::::: Properties ::::::::::::: //\r\n\r\n    /**\r\n     * @notice This mapping store the amount of liquidity and reward by address\r\n     */\r\n    mapping(address => StakerData) stakerDataPerAddress;\r\n\r\n    /**\r\n     * @notice The Total Value Locked(TVL) of the liquidity pool\r\n     * @dev The TVL is public because front may want to display it\r\n     */\r\n    uint256 public totalValueLocked;\r\n    \r\n    /**\r\n     * @notice The Token to store in the liquidity pool\r\n     * @dev Initialized on the constructor\r\n     */\r\n    IERC20 token;\r\n\r\n    /**\r\n     * @notice Retrieve the token price\r\n     * @dev Use Chainlink to retrieve the USD price of the token\r\n     */\r\n    AggregatorV3Interface internal priceFeed;\r\n\r\n    /**\r\n     * @notice Token multiplier to give a price on the Hwt token\r\n     * @dev As our Hwt token don't have any value on the market, we use a basic multiplier\r\n     */\r\n    uint public hwtTokenUsdValue = 931500000000000000;\r\n\r\n    /**\r\n     * @notice reward per second for the liquidity pool\r\n     */\r\n    uint rewardPerSecond = 925925925925;\r\n\r\n    // ::::::::::::: Modifiers ::::::::::::: //\r\n\r\n    /**\r\n     * @notice Modifier that allow only amount greater than zero to be staked or unstaked\r\n     */\r\n    modifier onlyAmountGreaterThanZero(uint _amount) {\r\n        require(_amount > 0, \"Only amount above zero are authorized\");\r\n        _;\r\n    }\r\n\r\n    // ::::::::::::: Events ::::::::::::: //\r\n\r\n    /**\r\n     * @notice Event informing total amount staked in the Liquidity Pool\r\n     * @param stakedAmount The amount that has been staked\r\n     */\r\n    event AmountStaked (uint stakedAmount);\r\n\r\n    /**\r\n     * @notice Event informing an amount was unstaked in the Liquidity Pool\r\n     * @param unstakedAmount The amount that has been unstaked\r\n     */\r\n    event AmountUnstaked (uint unstakedAmount);\r\n\r\n    /** \r\n     * @notice Event informing a reward was send\r\n     * @param rewardClaimedAmount The amount that has been offered\r\n     */\r\n    event RewardOffered (uint rewardClaimedAmount);\r\n\r\n    // ::::::::::::: Methods ::::::::::::: //\r\n\r\n    /**\r\n     * @notice Create erc20 instance that will be used for the liquidity pool\r\n     * @param _tokenAddress the smart contract address of the erc20 token\r\n     */\r\n    constructor(address _tokenAddress) {\r\n        token = IERC20(_tokenAddress);\r\n        // Link/USD price feed\r\n        priceFeed = AggregatorV3Interface(0x2c1d072e956AFFC0D435Cb7AC38EF18d24d9127c);\r\n    }\r\n\r\n    /**\r\n     * @notice Stake token in the Liquidity pool\r\n     * @dev Refresh the stored amount in the address mapping storedValuePerAddress and refresh the TVL\r\n     * @param _amount Total amount to store in the liquidity pool\r\n     */\r\n    function stake(uint _amount) payable external onlyAmountGreaterThanZero(_amount) {\r\n        \r\n        token.transferFrom(msg.sender, address(this), _amount);\r\n\r\n        // Update the locked amount of the sender\r\n        StakerData storage stakerData = stakerDataPerAddress[msg.sender];\r\n\r\n        // if tokens are already stored, update reward before the new stake\r\n        if(stakerData.stakedAmount > 0) {\r\n            stakerData.reward = computeReward(stakerData);\r\n        }\r\n\r\n        stakerData.stakedAmount = stakerData.stakedAmount + _amount;\r\n        stakerData.updateTimestamp = block.timestamp; \r\n\r\n        // Update the tvl of the liquidity pool\r\n        totalValueLocked = totalValueLocked  + _amount;\r\n\r\n        emit AmountStaked(stakerData.stakedAmount);\r\n    }\r\n\r\n    /**\r\n     * @notice Unstake the tokens in the Liquidity pool, user can retrieve their tokens\r\n     * @dev Refresh the stored amount in the address mapping stakerDataPerAddress and refresh the TVL\r\n     * @param _amount Total amount to unstake from the liquidity pool\r\n     */\r\n    function unstake(uint256 _amount) payable external onlyAmountGreaterThanZero(_amount) {\r\n        \r\n        StakerData storage stakerData = stakerDataPerAddress[msg.sender];\r\n        \r\n        // Check if the sender have this amount in pool\r\n        require(_amount <= stakerData.stakedAmount, \"You didn't stored this amount in the pool\");\r\n\r\n        // Update the reward first ! Then update staked amount and timestamp\r\n        stakerData.reward = computeReward(stakerData);\r\n\r\n        stakerData.stakedAmount = stakerData.stakedAmount - _amount;\r\n        stakerData.updateTimestamp = block.timestamp;\r\n\r\n        // Update the tvl of the liquidity pool\r\n        totalValueLocked = totalValueLocked  - _amount;\r\n\r\n        // Send the token back to the sender\r\n        token.transfer(msg.sender, _amount);\r\n        \r\n        emit AmountUnstaked(_amount);\r\n    }\r\n\r\n    /**\r\n     * @notice Get the msg.sender token staked amount\r\n     * @return stakedAmount token staked by msg.sender\r\n     */\r\n    function getStakedAmount() external view returns (uint stakedAmount) {\r\n        return(stakerDataPerAddress[msg.sender].stakedAmount);\r\n    }\r\n\r\n    function getTimeStamp() external view returns (uint actualStamp, uint userStamp) {\r\n        return(block.timestamp, stakerDataPerAddress[msg.sender].updateTimestamp);\r\n    }\r\n\r\n    /**\r\n     * @notice Get the token price in USD\r\n     * @dev USD Price is retrieved thanks to Chainlink\r\n     * @dev Can't be unit tested because of Ganache\r\n     * @return tokenPrice price of the token\r\n     */\r\n    function getTokenPrice() external view returns (int tokenPrice) {\r\n\r\n        (\r\n            /* uint80 roundID */,\r\n            int price,\r\n            /* uint256 startedAt, */,\r\n            /* uint256 timeStamp, */,\r\n            /* uint80 answeredInRound */\r\n        ) = priceFeed.latestRoundData();\r\n\r\n        return(price);\r\n    }\r\n\r\n    /**\r\n     * @notice Get the reward for msg.sender\r\n     * @return reward The reward computed by the contract\r\n     */\r\n    function getRewardAmount() external view returns (uint reward) {\r\n        return(computeReward(stakerDataPerAddress[msg.sender]));\r\n    }\r\n\r\n    /**\r\n     * @notice Compute the reward depending on time and existant reward\r\n     * @dev Timestamp are in seconds\r\n     * @param _stakerData Data of the staker\r\n     * @return rewardAmount The computed reward amount\r\n     */\r\n    function computeReward(StakerData memory _stakerData) private view returns(uint rewardAmount) {\r\n        \r\n        uint reward = ((block.timestamp - _stakerData.updateTimestamp) * rewardPerSecond * _stakerData.stakedAmount);\r\n\r\n        if(reward > 0) {\r\n            return _stakerData.reward + (reward / 1e18);\r\n        }\r\n        else {\r\n            return _stakerData.reward;\r\n        }\r\n    }\r\n\r\n    /**\r\n     * @notice Send then reward to the msg.sender\r\n     */\r\n    function claimReward() external {\r\n\r\n        StakerData storage stakerData = stakerDataPerAddress[msg.sender];\r\n\r\n        // Compute the reward\r\n        uint reward = computeReward(stakerData);\r\n\r\n        require(reward > 0, \"No reward to claim\");\r\n        \r\n        // Update the timestamp and the reward amount\r\n        stakerData.updateTimestamp = block.timestamp;\r\n        stakerData.reward = 0;\r\n\r\n        // Send reward tokens to the msg.sender\r\n        token.transfer(msg.sender, reward);\r\n\r\n        emit RewardOffered(reward);\r\n    }\r\n}",
  "sourcePath": "/mnt/c/DeFi-Liquidity-Pool/contracts/DeFiProtocol.sol",
  "compiler": {
    "name": "solc",
    "version": "0.8.13+commit.abaa5c0e.Emscripten.clang"
  },
  "schemaVersion": "3.4.7",
  "updatedAt": "2022-05-10T18:24:50.347Z",
  "networkType": "ethereum",
  "devdoc": {
    "author": "The Hello World Team",
    "events": {
      "AmountStaked(uint256)": {
        "params": {
          "stakedAmount": "The amount that has been staked"
        }
      },
      "AmountUnstaked(uint256)": {
        "params": {
          "unstakedAmount": "The amount that has been unstaked"
        }
      },
      "RewardOffered(uint256)": {
        "params": {
          "rewardClaimedAmount": "The amount that has been offered"
        }
      }
    },
    "kind": "dev",
    "methods": {
      "constructor": {
        "params": {
          "_tokenAddress": "the smart contract address of the erc20 token"
        }
      },
      "getRewardAmount()": {
        "returns": {
          "reward": "The reward computed by the contract"
        }
      },
      "getStakedAmount()": {
        "returns": {
          "stakedAmount": "token staked by msg.sender"
        }
      },
      "getTokenPrice()": {
        "details": "USD Price is retrieved thanks to ChainlinkCan't be unit tested because of Ganache",
        "returns": {
          "tokenPrice": "price of the token"
        }
      },
      "owner()": {
        "details": "Returns the address of the current owner."
      },
      "renounceOwnership()": {
        "details": "Leaves the contract without owner. It will not be possible to call `onlyOwner` functions anymore. Can only be called by the current owner. NOTE: Renouncing ownership will leave the contract without an owner, thereby removing any functionality that is only available to the owner."
      },
      "stake(uint256)": {
        "details": "Refresh the stored amount in the address mapping storedValuePerAddress and refresh the TVL",
        "params": {
          "_amount": "Total amount to store in the liquidity pool"
        }
      },
      "transferOwnership(address)": {
        "details": "Transfers ownership of the contract to a new account (`newOwner`). Can only be called by the current owner."
      },
      "unstake(uint256)": {
        "details": "Refresh the stored amount in the address mapping stakerDataPerAddress and refresh the TVL",
        "params": {
          "_amount": "Total amount to unstake from the liquidity pool"
        }
      }
    },
    "stateVariables": {
      "hwtTokenUsdValue": {
        "details": "As our Hwt token don't have any value on the market, we use a basic multiplier"
      },
      "priceFeed": {
        "details": "Use Chainlink to retrieve the USD price of the token"
      },
      "token": {
        "details": "Initialized on the constructor"
      },
      "totalValueLocked": {
        "details": "The TVL is public because front may want to display it"
      }
    },
    "title": "Hello World DeFi Protocol",
    "version": 1
  },
  "userdoc": {
    "events": {
      "AmountStaked(uint256)": {
        "notice": "Event informing total amount staked in the Liquidity Pool"
      },
      "AmountUnstaked(uint256)": {
        "notice": "Event informing an amount was unstaked in the Liquidity Pool"
      },
      "RewardOffered(uint256)": {
        "notice": "Event informing a reward was send"
      }
    },
    "kind": "user",
    "methods": {
      "claimReward()": {
        "notice": "Send then reward to the msg.sender"
      },
      "constructor": {
        "notice": "Create erc20 instance that will be used for the liquidity pool"
      },
      "getRewardAmount()": {
        "notice": "Get the reward for msg.sender"
      },
      "getStakedAmount()": {
        "notice": "Get the msg.sender token staked amount"
      },
      "getTokenPrice()": {
        "notice": "Get the token price in USD"
      },
      "hwtTokenUsdValue()": {
        "notice": "Token multiplier to give a price on the Hwt token"
      },
      "stake(uint256)": {
        "notice": "Stake token in the Liquidity pool"
      },
      "totalValueLocked()": {
        "notice": "The Total Value Locked(TVL) of the liquidity pool"
      },
      "unstake(uint256)": {
        "notice": "Unstake the tokens in the Liquidity pool, user can retrieve their tokens"
      }
    },
    "notice": "This contract offer the possibility to stake ERC20 in Liquidity Pools to receive Hello World Token rewards",
    "version": 1
  }
}