{
  "contractName": "DeFiProtocol",
  "abi": [
    {
      "inputs": [
        {
          "internalType": "address",
          "name": "_tokenAddress",
          "type": "address"
        }
      ],
      "stateMutability": "nonpayable",
      "type": "constructor"
    },
    {
      "anonymous": false,
      "inputs": [
        {
          "indexed": false,
          "internalType": "address",
          "name": "staker",
          "type": "address"
        },
        {
          "indexed": false,
          "internalType": "uint256",
          "name": "stakedAmount",
          "type": "uint256"
        }
      ],
      "name": "AmountStaked",
      "type": "event"
    },
    {
      "anonymous": false,
      "inputs": [
        {
          "indexed": false,
          "internalType": "address",
          "name": "staker",
          "type": "address"
        },
        {
          "indexed": false,
          "internalType": "uint256",
          "name": "unstakedAmount",
          "type": "uint256"
        }
      ],
      "name": "AmountUnstaked",
      "type": "event"
    },
    {
      "anonymous": false,
      "inputs": [
        {
          "indexed": true,
          "internalType": "address",
          "name": "previousOwner",
          "type": "address"
        },
        {
          "indexed": true,
          "internalType": "address",
          "name": "newOwner",
          "type": "address"
        }
      ],
      "name": "OwnershipTransferred",
      "type": "event"
    },
    {
      "inputs": [],
      "name": "owner",
      "outputs": [
        {
          "internalType": "address",
          "name": "",
          "type": "address"
        }
      ],
      "stateMutability": "view",
      "type": "function",
      "constant": true
    },
    {
      "inputs": [],
      "name": "renounceOwnership",
      "outputs": [],
      "stateMutability": "nonpayable",
      "type": "function"
    },
    {
      "inputs": [],
      "name": "totalValueLocked",
      "outputs": [
        {
          "internalType": "uint256",
          "name": "",
          "type": "uint256"
        }
      ],
      "stateMutability": "view",
      "type": "function",
      "constant": true
    },
    {
      "inputs": [
        {
          "internalType": "address",
          "name": "newOwner",
          "type": "address"
        }
      ],
      "name": "transferOwnership",
      "outputs": [],
      "stateMutability": "nonpayable",
      "type": "function"
    },
    {
      "inputs": [
        {
          "internalType": "uint256",
          "name": "_amount",
          "type": "uint256"
        }
      ],
      "name": "stake",
      "outputs": [],
      "stateMutability": "payable",
      "type": "function",
      "payable": true
    },
    {
      "inputs": [
        {
          "internalType": "uint256",
          "name": "_amount",
          "type": "uint256"
        }
      ],
      "name": "unstake",
      "outputs": [],
      "stateMutability": "payable",
      "type": "function",
      "payable": true
    },
    {
      "inputs": [],
      "name": "getStakedAmountAndPrice",
      "outputs": [
        {
          "internalType": "uint256",
          "name": "total",
          "type": "uint256"
        },
        {
          "internalType": "int256",
          "name": "price",
          "type": "int256"
        }
      ],
      "stateMutability": "view",
      "type": "function",
      "constant": true
    }
  ],
  "bytecode": "0x60806040526000600255670b1a2bc2ec500000600460146101000a81548167ffffffffffffffff021916908367ffffffffffffffff1602179055503480156200004757600080fd5b50604051620013783803806200137883398181016040528101906200006d919062000260565b6200008d620000816200012a60201b60201c565b6200013260201b60201c565b80600360006101000a81548173ffffffffffffffffffffffffffffffffffffffff021916908373ffffffffffffffffffffffffffffffffffffffff160217905550739326bfa02add2366b30bacb125260af641031331600460006101000a81548173ffffffffffffffffffffffffffffffffffffffff021916908373ffffffffffffffffffffffffffffffffffffffff1602179055505062000292565b600033905090565b60008060009054906101000a900473ffffffffffffffffffffffffffffffffffffffff169050816000806101000a81548173ffffffffffffffffffffffffffffffffffffffff021916908373ffffffffffffffffffffffffffffffffffffffff1602179055508173ffffffffffffffffffffffffffffffffffffffff168173ffffffffffffffffffffffffffffffffffffffff167f8be0079c531659141344cd1fd0a4f28419497f9722a3daafe3b4186f6b6457e060405160405180910390a35050565b600080fd5b600073ffffffffffffffffffffffffffffffffffffffff82169050919050565b60006200022882620001fb565b9050919050565b6200023a816200021b565b81146200024657600080fd5b50565b6000815190506200025a816200022f565b92915050565b600060208284031215620002795762000278620001f6565b5b6000620002898482850162000249565b91505092915050565b6110d680620002a26000396000f3fe6080604052600436106100705760003560e01c80638da5cb5b1161004e5780638da5cb5b146100d4578063a694fc3a146100ff578063ec18154e1461011b578063f2fde38b1461014657610070565b8063125c01e7146100755780632e17de78146100a1578063715018a6146100bd575b600080fd5b34801561008157600080fd5b5061008a61016f565b604051610098929190610950565b60405180910390f35b6100bb60048036038101906100b691906109aa565b610217565b005b3480156100c957600080fd5b506100d261045d565b005b3480156100e057600080fd5b506100e96104e5565b6040516100f69190610a18565b60405180910390f35b610119600480360381019061011491906109aa565b61050e565b005b34801561012757600080fd5b50610130610755565b60405161013d9190610a33565b60405180910390f35b34801561015257600080fd5b5061016d60048036038101906101689190610a7a565b61075b565b005b6000806000600460009054906101000a900473ffffffffffffffffffffffffffffffffffffffff1673ffffffffffffffffffffffffffffffffffffffff1663feaf968c6040518163ffffffff1660e01b815260040160a060405180830381865afa1580156101e1573d6000803e3d6000fd5b505050506040513d601f19601f820116820180604052508101906102059190610b2a565b50505091505060008192509250509091565b806000811161025b576040517f08c379a000000000000000000000000000000000000000000000000000000000815260040161025290610c28565b60405180910390fd5b81600160003373ffffffffffffffffffffffffffffffffffffffff1673ffffffffffffffffffffffffffffffffffffffff1681526020019081526020016000205410156102dd576040517f08c379a00000000000000000000000000000000000000000000000000000000081526004016102d490610cba565b60405180910390fd5b816002546102eb9190610d09565b60028190555081600160003373ffffffffffffffffffffffffffffffffffffffff1673ffffffffffffffffffffffffffffffffffffffff1681526020019081526020016000205461033c9190610d09565b600160003373ffffffffffffffffffffffffffffffffffffffff1673ffffffffffffffffffffffffffffffffffffffff16815260200190815260200160002081905550600360009054906101000a900473ffffffffffffffffffffffffffffffffffffffff1673ffffffffffffffffffffffffffffffffffffffff1663a9059cbb33846040518363ffffffff1660e01b81526004016103dc929190610d3d565b6020604051808303816000875af11580156103fb573d6000803e3d6000fd5b505050506040513d601f19601f8201168201806040525081019061041f9190610d9e565b507f3425a37fe438dba566444a6c4d5ac2d0e3c39e0e1685eed68b0bac0f8d45758b3383604051610451929190610d3d565b60405180910390a15050565b610465610852565b73ffffffffffffffffffffffffffffffffffffffff166104836104e5565b73ffffffffffffffffffffffffffffffffffffffff16146104d9576040517f08c379a00000000000000000000000000000000000000000000000000000000081526004016104d090610e17565b60405180910390fd5b6104e3600061085a565b565b60008060009054906101000a900473ffffffffffffffffffffffffffffffffffffffff16905090565b8060008111610552576040517f08c379a000000000000000000000000000000000000000000000000000000000815260040161054990610c28565b60405180910390fd5b60008211610595576040517f08c379a000000000000000000000000000000000000000000000000000000000815260040161058c90610ea9565b60405180910390fd5b600360009054906101000a900473ffffffffffffffffffffffffffffffffffffffff1673ffffffffffffffffffffffffffffffffffffffff166323b872dd3330856040518463ffffffff1660e01b81526004016105f493929190610ec9565b6020604051808303816000875af1158015610613573d6000803e3d6000fd5b505050506040513d601f19601f820116820180604052508101906106379190610d9e565b610676576040517f08c379a000000000000000000000000000000000000000000000000000000000815260040161066d90610f98565b60405180910390fd5b816002546106849190610fb8565b60028190555081600160003373ffffffffffffffffffffffffffffffffffffffff1673ffffffffffffffffffffffffffffffffffffffff168152602001908152602001600020546106d59190610fb8565b600160003373ffffffffffffffffffffffffffffffffffffffff1673ffffffffffffffffffffffffffffffffffffffff168152602001908152602001600020819055507f3d38832b715af529dbcd52809af95a3d65307ee7464f4e451c3c468b49442df73383604051610749929190610d3d565b60405180910390a15050565b60025481565b610763610852565b73ffffffffffffffffffffffffffffffffffffffff166107816104e5565b73ffffffffffffffffffffffffffffffffffffffff16146107d7576040517f08c379a00000000000000000000000000000000000000000000000000000000081526004016107ce90610e17565b60405180910390fd5b600073ffffffffffffffffffffffffffffffffffffffff168173ffffffffffffffffffffffffffffffffffffffff1603610846576040517f08c379a000000000000000000000000000000000000000000000000000000000815260040161083d90611080565b60405180910390fd5b61084f8161085a565b50565b600033905090565b60008060009054906101000a900473ffffffffffffffffffffffffffffffffffffffff169050816000806101000a81548173ffffffffffffffffffffffffffffffffffffffff021916908373ffffffffffffffffffffffffffffffffffffffff1602179055508173ffffffffffffffffffffffffffffffffffffffff168173ffffffffffffffffffffffffffffffffffffffff167f8be0079c531659141344cd1fd0a4f28419497f9722a3daafe3b4186f6b6457e060405160405180910390a35050565b6000819050919050565b6109318161091e565b82525050565b6000819050919050565b61094a81610937565b82525050565b60006040820190506109656000830185610928565b6109726020830184610941565b9392505050565b600080fd5b6109878161091e565b811461099257600080fd5b50565b6000813590506109a48161097e565b92915050565b6000602082840312156109c0576109bf610979565b5b60006109ce84828501610995565b91505092915050565b600073ffffffffffffffffffffffffffffffffffffffff82169050919050565b6000610a02826109d7565b9050919050565b610a12816109f7565b82525050565b6000602082019050610a2d6000830184610a09565b92915050565b6000602082019050610a486000830184610928565b92915050565b610a57816109f7565b8114610a6257600080fd5b50565b600081359050610a7481610a4e565b92915050565b600060208284031215610a9057610a8f610979565b5b6000610a9e84828501610a65565b91505092915050565b600069ffffffffffffffffffff82169050919050565b610ac681610aa7565b8114610ad157600080fd5b50565b600081519050610ae381610abd565b92915050565b610af281610937565b8114610afd57600080fd5b50565b600081519050610b0f81610ae9565b92915050565b600081519050610b248161097e565b92915050565b600080600080600060a08688031215610b4657610b45610979565b5b6000610b5488828901610ad4565b9550506020610b6588828901610b00565b9450506040610b7688828901610b15565b9350506060610b8788828901610b15565b9250506080610b9888828901610ad4565b9150509295509295909350565b600082825260208201905092915050565b7f4f6e6c7920616d6f756e742061626f7665207a65726f2061726520617574686f60008201527f72697a6564000000000000000000000000000000000000000000000000000000602082015250565b6000610c12602583610ba5565b9150610c1d82610bb6565b604082019050919050565b60006020820190508181036000830152610c4181610c05565b9050919050565b7f596f75206469646e27742073746f726564207468697320616d6f756e7420696e60008201527f2074686520706f6f6c0000000000000000000000000000000000000000000000602082015250565b6000610ca4602983610ba5565b9150610caf82610c48565b604082019050919050565b60006020820190508181036000830152610cd381610c97565b9050919050565b7f4e487b7100000000000000000000000000000000000000000000000000000000600052601160045260246000fd5b6000610d148261091e565b9150610d1f8361091e565b925082821015610d3257610d31610cda565b5b828203905092915050565b6000604082019050610d526000830185610a09565b610d5f6020830184610928565b9392505050565b60008115159050919050565b610d7b81610d66565b8114610d8657600080fd5b50565b600081519050610d9881610d72565b92915050565b600060208284031215610db457610db3610979565b5b6000610dc284828501610d89565b91505092915050565b7f4f776e61626c653a2063616c6c6572206973206e6f7420746865206f776e6572600082015250565b6000610e01602083610ba5565b9150610e0c82610dcb565b602082019050919050565b60006020820190508181036000830152610e3081610df4565b9050919050565b7f596f752063616e206f6e6c7920696e7365727420612076616c7565206772656160008201527f746572207468616e203000000000000000000000000000000000000000000000602082015250565b6000610e93602a83610ba5565b9150610e9e82610e37565b604082019050919050565b60006020820190508181036000830152610ec281610e86565b9050919050565b6000606082019050610ede6000830186610a09565b610eeb6020830185610a09565b610ef86040830184610928565b949350505050565b7f596f75206d7573742068617665207468652062616c616e636520696e20796f7560008201527f722077616c6c657420616e6420617070726f7665207468697320636f6e74726160208201527f6374000000000000000000000000000000000000000000000000000000000000604082015250565b6000610f82604283610ba5565b9150610f8d82610f00565b606082019050919050565b60006020820190508181036000830152610fb181610f75565b9050919050565b6000610fc38261091e565b9150610fce8361091e565b9250827fffffffffffffffffffffffffffffffffffffffffffffffffffffffffffffffff0382111561100357611002610cda565b5b828201905092915050565b7f4f776e61626c653a206e6577206f776e657220697320746865207a65726f206160008201527f6464726573730000000000000000000000000000000000000000000000000000602082015250565b600061106a602683610ba5565b91506110758261100e565b604082019050919050565b600060208201905081810360008301526110998161105d565b905091905056fea264697066735822122005d7d14255fb0c2895d908c8168858c2e3265b965a6183348ad8acfdaa19f69564736f6c634300080d0033",
  "immutableReferences": {},
  "source": "// SPDX-License-Identifier: GPL-3.0\r\n\r\npragma solidity 0.8.13;\r\n\r\nimport \"@openzeppelin/contracts/access/Ownable.sol\";\r\nimport \"@openzeppelin/contracts/token/ERC20/IERC20.sol\";\r\nimport \"@chainlink/contracts/src/v0.8/interfaces/AggregatorV3Interface.sol\";\r\n\r\n/**\r\n * @title Hello World DeFi Protocol\r\n * @author The Hello World Team\r\n * @notice This contract offer the possibility to stake ERC20 in Liquidity Pools to receive Hello World Token rewards\r\n */\r\ncontract DeFiProtocol is Ownable {\r\n\r\n    // ::::::::::::: Properties ::::::::::::: //\r\n\r\n    /**\r\n     * @notice This mapping store the amount of liquidity by address\r\n     */\r\n    mapping(address => uint256) storedValuePerAddress;\r\n\r\n    /**\r\n     * @notice The Total Value Locked(TVL) of the liquidity pool\r\n     * @dev The TVL is public because front may want to display it\r\n     */\r\n    uint256 public totalValueLocked = 0;\r\n    \r\n    /**\r\n     * @notice The Token to store in the liquidity pool\r\n     * @dev Initialized on the constructor\r\n     */\r\n    IERC20 token;\r\n\r\n    /**\r\n     * @notice Retrieve the token price\r\n     * @dev Use Chainlink to retrieve the USD price of the token\r\n     */\r\n    AggregatorV3Interface internal priceFeed;\r\n\r\n    /**\r\n     * @notice Token multiplier to give a price on the Hwt token\r\n     * @dev As our Hwt token don't have any value on the market, we use a basic multiplier\r\n     */\r\n    uint64 customTokenMultiplier = 800000000000000000;\r\n\r\n    // ::::::::::::: Modifiers ::::::::::::: //\r\n\r\n    /**\r\n     * @notice Modifier that allow only amount greater than zero to be staked or unstaked\r\n     */\r\n    modifier onlyAmountGreaterThanZero(uint256 _amount) {\r\n        require(_amount > 0, \"Only amount above zero are authorized\");\r\n        _;\r\n    }\r\n\r\n    // ::::::::::::: Events ::::::::::::: //\r\n\r\n    /**\r\n     * @notice Event informing an amount was staked in the Liquidity Pool\r\n     * @param staker The address that staked\r\n     * @param stakedAmount The amount that has been staked\r\n     */\r\n    event AmountStaked (address staker, uint256 stakedAmount);\r\n\r\n    /**\r\n     * @notice Event informing an amount was unstaked in the Liquidity Pool\r\n     * @param staker The address that unstaked\r\n     * @param unstakedAmount The amount that has been unstaked\r\n     */\r\n    event AmountUnstaked (address staker, uint256 unstakedAmount);\r\n\r\n    // ::::::::::::: Methods ::::::::::::: //\r\n\r\n    /**\r\n     * @notice Create erc20 instance that will be used for the liquidity pool\r\n     * @param _tokenAddress the smart contract address of the erc20 token\r\n     */\r\n    constructor(address _tokenAddress) {\r\n        token = IERC20(_tokenAddress);\r\n        priceFeed = AggregatorV3Interface(0x9326BFA02ADD2366b30bacB125260Af641031331);\r\n    }\r\n\r\n    /**\r\n     * @notice Stake token in the Liquidity pool\r\n     * @dev Refresh the stored amount in the address mapping storedValuePerAddress and refresh the TVL\r\n     * @param _amount Total amount to store in the liquidity pool\r\n     */\r\n    function stake(uint256 _amount) payable external onlyAmountGreaterThanZero(_amount) {\r\n        require(_amount > 0, \"You can only insert a value greater than 0\");\r\n        require(token.transferFrom(msg.sender, address(this), _amount), \"You must have the balance in your wallet and approve this contract\");\r\n        \r\n        // Update the tvl of the liquidity pool\r\n        totalValueLocked = totalValueLocked  + _amount;\r\n\r\n        // Update the locked amount of the sender\r\n        storedValuePerAddress[msg.sender] = storedValuePerAddress[msg.sender] + _amount;\r\n        \r\n        emit AmountStaked(msg.sender, _amount);\r\n    }\r\n\r\n    /**\r\n     * @notice Unstake the tokens in the Liquidity pool, user can retrieve their tokens\r\n     * @dev Refresh the stored amount in the address mapping storedValuePerAddress and refresh the TVL\r\n     * @param _amount Total amount to unstake from the liquidity pool\r\n     */\r\n    function unstake(uint256 _amount) payable external onlyAmountGreaterThanZero(_amount) {\r\n        // Check if the sender have this amount in pool\r\n        require(storedValuePerAddress[msg.sender] >= _amount, \"You didn't stored this amount in the pool\");\r\n\r\n        // Update the tvl of the liquidity pool\r\n        totalValueLocked = totalValueLocked  - _amount;\r\n\r\n        // Update the locked amount of the sender\r\n        storedValuePerAddress[msg.sender] = storedValuePerAddress[msg.sender] - _amount;\r\n\r\n        // Send the token back to the sender\r\n        token.transfer(msg.sender, _amount);\r\n        \r\n        emit AmountUnstaked(msg.sender, _amount);\r\n    }\r\n\r\n    /**\r\n     * @notice Get the token staked amount and the price in USD\r\n     * @dev USD Price is retrieved thanks to Chainlink\r\n     * @return total token staked by msg.sender\r\n     * @return price of the amount\r\n     */\r\n    function getStakedAmountAndPrice() external view returns (uint256 total, int price) {\r\n\r\n        (\r\n            /*uint80 roundID*/,\r\n            int price,\r\n            /*uint startedAt*/,\r\n            /*uint timeStamp*/,\r\n            /*uint80 answeredInRound*/\r\n        ) = priceFeed.latestRoundData();\r\n\r\n        return(0, price);\r\n    }\r\n}",
  "sourcePath": "/mnt/d/Alyra/DeFi-Liquidity-Pool/contracts/DeFiProtocol.sol",
  "compiler": {
    "name": "solc",
    "version": "0.8.13+commit.abaa5c0e.Emscripten.clang"
  },
  "schemaVersion": "3.4.6",
  "updatedAt": "2022-05-06T16:17:17.078Z",
  "networkType": "ethereum",
  "devdoc": {
    "author": "The Hello World Team",
    "events": {
      "AmountStaked(address,uint256)": {
        "params": {
          "stakedAmount": "The amount that has been staked",
          "staker": "The address that staked"
        }
      },
      "AmountUnstaked(address,uint256)": {
        "params": {
          "staker": "The address that unstaked",
          "unstakedAmount": "The amount that has been unstaked"
        }
      }
    },
    "kind": "dev",
    "methods": {
      "constructor": {
        "params": {
          "_tokenAddress": "the smart contract address of the erc20 token"
        }
      },
      "getStakedAmountAndPrice()": {
        "details": "USD Price is retrieved thanks to Chainlink",
        "returns": {
          "price": "of the amount",
          "total": "token staked by msg.sender"
        }
      },
      "owner()": {
        "details": "Returns the address of the current owner."
      },
      "renounceOwnership()": {
        "details": "Leaves the contract without owner. It will not be possible to call `onlyOwner` functions anymore. Can only be called by the current owner. NOTE: Renouncing ownership will leave the contract without an owner, thereby removing any functionality that is only available to the owner."
      },
      "stake(uint256)": {
        "details": "Refresh the stored amount in the address mapping storedValuePerAddress and refresh the TVL",
        "params": {
          "_amount": "Total amount to store in the liquidity pool"
        }
      },
      "transferOwnership(address)": {
        "details": "Transfers ownership of the contract to a new account (`newOwner`). Can only be called by the current owner."
      },
      "unstake(uint256)": {
        "details": "Refresh the stored amount in the address mapping storedValuePerAddress and refresh the TVL",
        "params": {
          "_amount": "Total amount to unstake from the liquidity pool"
        }
      }
    },
    "stateVariables": {
      "customTokenMultiplier": {
        "details": "As our Hwt token don't have any value on the market, we use a basic multiplier"
      },
      "priceFeed": {
        "details": "Use Chainlink to retrieve the USD price of the token"
      },
      "token": {
        "details": "Initialized on the constructor"
      },
      "totalValueLocked": {
        "details": "The TVL is public because front may want to display it"
      }
    },
    "title": "Hello World DeFi Protocol",
    "version": 1
  },
  "userdoc": {
    "events": {
      "AmountStaked(address,uint256)": {
        "notice": "Event informing an amount was staked in the Liquidity Pool"
      },
      "AmountUnstaked(address,uint256)": {
        "notice": "Event informing an amount was unstaked in the Liquidity Pool"
      }
    },
    "kind": "user",
    "methods": {
      "constructor": {
        "notice": "Create erc20 instance that will be used for the liquidity pool"
      },
      "getStakedAmountAndPrice()": {
        "notice": "Get the token staked amount and the price in USD"
      },
      "stake(uint256)": {
        "notice": "Stake token in the Liquidity pool"
      },
      "totalValueLocked()": {
        "notice": "The Total Value Locked(TVL) of the liquidity pool"
      },
      "unstake(uint256)": {
        "notice": "Unstake the tokens in the Liquidity pool, user can retrieve their tokens"
      }
    },
    "notice": "This contract offer the possibility to stake ERC20 in Liquidity Pools to receive Hello World Token rewards",
    "version": 1
  }
}