{
  "contractName": "DeFiProtocol",
  "abi": [
    {
      "anonymous": false,
      "inputs": [
        {
          "indexed": true,
          "internalType": "address",
          "name": "previousOwner",
          "type": "address"
        },
        {
          "indexed": true,
          "internalType": "address",
          "name": "newOwner",
          "type": "address"
        }
      ],
      "name": "OwnershipTransferred",
      "type": "event"
    },
    {
      "anonymous": false,
      "inputs": [
        {
          "indexed": false,
          "internalType": "address",
          "name": "tokenAddress",
          "type": "address"
        },
        {
          "indexed": false,
          "internalType": "uint256",
          "name": "rewardPerSecond",
          "type": "uint256"
        }
      ],
      "name": "PoolCreated",
      "type": "event"
    },
    {
      "anonymous": false,
      "inputs": [
        {
          "indexed": false,
          "internalType": "address",
          "name": "sender",
          "type": "address"
        },
        {
          "indexed": false,
          "internalType": "address",
          "name": "tokenAddress",
          "type": "address"
        },
        {
          "indexed": false,
          "internalType": "uint256",
          "name": "rewardClaimedAmount",
          "type": "uint256"
        }
      ],
      "name": "RewardOffered",
      "type": "event"
    },
    {
      "anonymous": false,
      "inputs": [
        {
          "indexed": false,
          "internalType": "address",
          "name": "sender",
          "type": "address"
        },
        {
          "indexed": false,
          "internalType": "address",
          "name": "tokenAddress",
          "type": "address"
        },
        {
          "indexed": false,
          "internalType": "uint256",
          "name": "stakedAmount",
          "type": "uint256"
        }
      ],
      "name": "StakedAmountUpdated",
      "type": "event"
    },
    {
      "inputs": [],
      "name": "flpTokenUsdValue",
      "outputs": [
        {
          "internalType": "uint256",
          "name": "",
          "type": "uint256"
        }
      ],
      "stateMutability": "view",
      "type": "function",
      "constant": true
    },
    {
      "inputs": [],
      "name": "hwtTokenUsdValue",
      "outputs": [
        {
          "internalType": "uint256",
          "name": "",
          "type": "uint256"
        }
      ],
      "stateMutability": "view",
      "type": "function",
      "constant": true
    },
    {
      "inputs": [],
      "name": "owner",
      "outputs": [
        {
          "internalType": "address",
          "name": "",
          "type": "address"
        }
      ],
      "stateMutability": "view",
      "type": "function",
      "constant": true
    },
    {
      "inputs": [],
      "name": "renounceOwnership",
      "outputs": [],
      "stateMutability": "nonpayable",
      "type": "function"
    },
    {
      "inputs": [
        {
          "internalType": "address",
          "name": "newOwner",
          "type": "address"
        }
      ],
      "name": "transferOwnership",
      "outputs": [],
      "stateMutability": "nonpayable",
      "type": "function"
    },
    {
      "inputs": [
        {
          "internalType": "address",
          "name": "_tokenAddress",
          "type": "address"
        },
        {
          "internalType": "address",
          "name": "_oracleAggregatorAddress",
          "type": "address"
        },
        {
          "internalType": "uint256",
          "name": "_rewardPerSecond",
          "type": "uint256"
        }
      ],
      "name": "createLiquidityPool",
      "outputs": [],
      "stateMutability": "nonpayable",
      "type": "function"
    },
    {
      "inputs": [
        {
          "internalType": "address",
          "name": "_tokenAddress",
          "type": "address"
        },
        {
          "internalType": "uint256",
          "name": "_amount",
          "type": "uint256"
        }
      ],
      "name": "stake",
      "outputs": [],
      "stateMutability": "payable",
      "type": "function",
      "payable": true
    },
    {
      "inputs": [
        {
          "internalType": "address",
          "name": "_tokenAddress",
          "type": "address"
        },
        {
          "internalType": "uint256",
          "name": "_amount",
          "type": "uint256"
        }
      ],
      "name": "unstake",
      "outputs": [],
      "stateMutability": "payable",
      "type": "function",
      "payable": true
    },
    {
      "inputs": [
        {
          "internalType": "address",
          "name": "_tokenAddress",
          "type": "address"
        }
      ],
      "name": "getStakedAmount",
      "outputs": [
        {
          "internalType": "uint256",
          "name": "stakedAmount",
          "type": "uint256"
        }
      ],
      "stateMutability": "view",
      "type": "function",
      "constant": true
    },
    {
      "inputs": [
        {
          "internalType": "address",
          "name": "_tokenAddress",
          "type": "address"
        }
      ],
      "name": "getTokenPrice",
      "outputs": [
        {
          "internalType": "int256",
          "name": "",
          "type": "int256"
        }
      ],
      "stateMutability": "view",
      "type": "function",
      "constant": true
    },
    {
      "inputs": [
        {
          "internalType": "address",
          "name": "_tokenAddress",
          "type": "address"
        }
      ],
      "name": "getRewardAmount",
      "outputs": [
        {
          "internalType": "uint256",
          "name": "reward",
          "type": "uint256"
        }
      ],
      "stateMutability": "view",
      "type": "function",
      "constant": true
    },
    {
      "inputs": [
        {
          "internalType": "address",
          "name": "_tokenAddress",
          "type": "address"
        }
      ],
      "name": "claimReward",
      "outputs": [],
      "stateMutability": "nonpayable",
      "type": "function"
    },
    {
      "inputs": [
        {
          "internalType": "address",
          "name": "_tokenAddress",
          "type": "address"
        }
      ],
      "name": "getTotalValueLocked",
      "outputs": [
        {
          "internalType": "uint256",
          "name": "",
          "type": "uint256"
        }
      ],
      "stateMutability": "view",
      "type": "function",
      "constant": true
    },
    {
      "inputs": [
        {
          "internalType": "address",
          "name": "_tokenAddress",
          "type": "address"
        }
      ],
      "name": "getRewardPerSecond",
      "outputs": [
        {
          "internalType": "uint256",
          "name": "",
          "type": "uint256"
        }
      ],
      "stateMutability": "view",
      "type": "function",
      "constant": true
    }
  ],
  "bytecode": "0x6080604052670ced5a509046c00060025567447256d190b4400060035534801561002857600080fd5b5061004561003a61004a60201b60201c565b61005260201b60201c565b610116565b600033905090565b60008060009054906101000a900473ffffffffffffffffffffffffffffffffffffffff169050816000806101000a81548173ffffffffffffffffffffffffffffffffffffffff021916908373ffffffffffffffffffffffffffffffffffffffff1602179055508173ffffffffffffffffffffffffffffffffffffffff168173ffffffffffffffffffffffffffffffffffffffff167f8be0079c531659141344cd1fd0a4f28419497f9722a3daafe3b4186f6b6457e060405160405180910390a35050565b611fb8806101256000396000f3fe6080604052600436106100dd5760003560e01c80638fd82e1b1161007f578063d02641a011610059578063d02641a014610292578063d279c191146102cf578063d7357d34146102f8578063f2fde38b14610335576100dd565b80638fd82e1b1461022f578063adc9772e1461025a578063c2a672e014610276576100dd565b8063715018a6116100bb578063715018a61461019957806378278e14146101b05780637cd9e6aa146101d95780638da5cb5b14610204576100dd565b806344a040f5146100e25780634da6a5561461011f57806369dae6c61461015c575b600080fd5b3480156100ee57600080fd5b5061010960048036038101906101049190611731565b61035e565b6040516101169190611777565b60405180910390f35b34801561012b57600080fd5b5061014660048036038101906101419190611731565b6104eb565b6040516101539190611777565b60405180910390f35b34801561016857600080fd5b50610183600480360381019061017e9190611731565b610608565b6040516101909190611777565b60405180910390f35b3480156101a557600080fd5b506101ae6106e5565b005b3480156101bc57600080fd5b506101d760048036038101906101d291906117be565b61076d565b005b3480156101e557600080fd5b506101ee6109d9565b6040516101fb9190611777565b60405180910390f35b34801561021057600080fd5b506102196109df565b6040516102269190611820565b60405180910390f35b34801561023b57600080fd5b50610244610a08565b6040516102519190611777565b60405180910390f35b610274600480360381019061026f919061183b565b610a0e565b005b610290600480360381019061028b919061183b565b610cb8565b005b34801561029e57600080fd5b506102b960048036038101906102b49190611731565b610f99565b6040516102c69190611894565b60405180910390f35b3480156102db57600080fd5b506102f660048036038101906102f19190611731565b61111a565b005b34801561030457600080fd5b5061031f600480360381019061031a9190611731565b6113bc565b60405161032c9190611777565b60405180910390f35b34801561034157600080fd5b5061035c60048036038101906103579190611731565b611499565b005b600081600160008273ffffffffffffffffffffffffffffffffffffffff1673ffffffffffffffffffffffffffffffffffffffff16815260200190815260200160002060000160009054906101000a900460ff166103f0576040517f08c379a00000000000000000000000000000000000000000000000000000000081526004016103e790611932565b60405180910390fd5b6104e3600160008573ffffffffffffffffffffffffffffffffffffffff1673ffffffffffffffffffffffffffffffffffffffff16815260200190815260200160002060040160003373ffffffffffffffffffffffffffffffffffffffff1673ffffffffffffffffffffffffffffffffffffffff1681526020019081526020016000206040518060600160405290816000820154815260200160018201548152602001600282015481525050600160008673ffffffffffffffffffffffffffffffffffffffff1673ffffffffffffffffffffffffffffffffffffffff16815260200190815260200160002060010154611590565b915050919050565b600081600160008273ffffffffffffffffffffffffffffffffffffffff1673ffffffffffffffffffffffffffffffffffffffff16815260200190815260200160002060000160009054906101000a900460ff1661057d576040517f08c379a000000000000000000000000000000000000000000000000000000000815260040161057490611932565b60405180910390fd5b600160008473ffffffffffffffffffffffffffffffffffffffff1673ffffffffffffffffffffffffffffffffffffffff16815260200190815260200160002060040160003373ffffffffffffffffffffffffffffffffffffffff1673ffffffffffffffffffffffffffffffffffffffff16815260200190815260200160002060000154915050919050565b600081600160008273ffffffffffffffffffffffffffffffffffffffff1673ffffffffffffffffffffffffffffffffffffffff16815260200190815260200160002060000160009054906101000a900460ff1661069a576040517f08c379a000000000000000000000000000000000000000000000000000000000815260040161069190611932565b60405180910390fd5b600160008473ffffffffffffffffffffffffffffffffffffffff1673ffffffffffffffffffffffffffffffffffffffff16815260200190815260200160002060030154915050919050565b6106ed611602565b73ffffffffffffffffffffffffffffffffffffffff1661070b6109df565b73ffffffffffffffffffffffffffffffffffffffff1614610761576040517f08c379a00000000000000000000000000000000000000000000000000000000081526004016107589061199e565b60405180910390fd5b61076b600061160a565b565b610775611602565b73ffffffffffffffffffffffffffffffffffffffff166107936109df565b73ffffffffffffffffffffffffffffffffffffffff16146107e9576040517f08c379a00000000000000000000000000000000000000000000000000000000081526004016107e09061199e565b60405180910390fd5b600160008473ffffffffffffffffffffffffffffffffffffffff1673ffffffffffffffffffffffffffffffffffffffff16815260200190815260200160002060000160009054906101000a900460ff1615610879576040517f08c379a000000000000000000000000000000000000000000000000000000000815260040161087090611a0a565b60405180910390fd5b80600160008573ffffffffffffffffffffffffffffffffffffffff1673ffffffffffffffffffffffffffffffffffffffff1681526020019081526020016000206001018190555081600160008573ffffffffffffffffffffffffffffffffffffffff1673ffffffffffffffffffffffffffffffffffffffff16815260200190815260200160002060020160006101000a81548173ffffffffffffffffffffffffffffffffffffffff021916908373ffffffffffffffffffffffffffffffffffffffff16021790555060018060008573ffffffffffffffffffffffffffffffffffffffff1673ffffffffffffffffffffffffffffffffffffffff16815260200190815260200160002060000160006101000a81548160ff0219169083151502179055507f641e49906554552c8c33d7e09e02d1270590f405bc1da0c7b99a9c2808abdd0583826040516109cc929190611a2a565b60405180910390a1505050565b60025481565b60008060009054906101000a900473ffffffffffffffffffffffffffffffffffffffff16905090565b60035481565b81600160008273ffffffffffffffffffffffffffffffffffffffff1673ffffffffffffffffffffffffffffffffffffffff16815260200190815260200160002060000160009054906101000a900460ff16610a9e576040517f08c379a0000000000000000000000000000000000000000000000000000000008152600401610a9590611932565b60405180910390fd5b8160008111610ae2576040517f08c379a0000000000000000000000000000000000000000000000000000000008152600401610ad990611ac5565b60405180910390fd5b8373ffffffffffffffffffffffffffffffffffffffff166323b872dd3330866040518463ffffffff1660e01b8152600401610b1f93929190611ae5565b6020604051808303816000875af1158015610b3e573d6000803e3d6000fd5b505050506040513d601f19601f82011682018060405250810190610b629190611b54565b506000600160008673ffffffffffffffffffffffffffffffffffffffff1673ffffffffffffffffffffffffffffffffffffffff168152602001908152602001600020905060008160040160003373ffffffffffffffffffffffffffffffffffffffff1673ffffffffffffffffffffffffffffffffffffffff1681526020019081526020016000209050600081600001541115610c3857610c2f8160405180606001604052908160008201548152602001600182015481526020016002820154815250508360010154611590565b81600201819055505b848160000154610c489190611bb0565b8160000181905550428160010181905550848260030154610c699190611bb0565b82600301819055507f77ebbd26b0a6a22912eb21e90e3f366a25f7781d0d84076fb1bec335d226445a33878360000154604051610ca893929190611ae5565b60405180910390a1505050505050565b81600160008273ffffffffffffffffffffffffffffffffffffffff1673ffffffffffffffffffffffffffffffffffffffff16815260200190815260200160002060000160009054906101000a900460ff16610d48576040517f08c379a0000000000000000000000000000000000000000000000000000000008152600401610d3f90611932565b60405180910390fd5b8160008111610d8c576040517f08c379a0000000000000000000000000000000000000000000000000000000008152600401610d8390611ac5565b60405180910390fd5b6000600160008673ffffffffffffffffffffffffffffffffffffffff1673ffffffffffffffffffffffffffffffffffffffff168152602001908152602001600020905060008160040160003373ffffffffffffffffffffffffffffffffffffffff1673ffffffffffffffffffffffffffffffffffffffff16815260200190815260200160002090508060000154851115610e5b576040517f08c379a0000000000000000000000000000000000000000000000000000000008152600401610e5290611c78565b60405180910390fd5b610e928160405180606001604052908160008201548152602001600182015481526020016002820154815250508360010154611590565b8160020181905550848160000154610eaa9190611c98565b8160000181905550428160010181905550848260030154610ecb9190611c98565b82600301819055508573ffffffffffffffffffffffffffffffffffffffff1663a9059cbb33876040518363ffffffff1660e01b8152600401610f0e929190611a2a565b6020604051808303816000875af1158015610f2d573d6000803e3d6000fd5b505050506040513d601f19601f82011682018060405250810190610f519190611b54565b507f77ebbd26b0a6a22912eb21e90e3f366a25f7781d0d84076fb1bec335d226445a33878360000154604051610f8993929190611ae5565b60405180910390a1505050505050565b600081600160008273ffffffffffffffffffffffffffffffffffffffff1673ffffffffffffffffffffffffffffffffffffffff16815260200190815260200160002060000160009054906101000a900460ff1661102b576040517f08c379a000000000000000000000000000000000000000000000000000000000815260040161102290611932565b60405180910390fd5b6000600160008573ffffffffffffffffffffffffffffffffffffffff1673ffffffffffffffffffffffffffffffffffffffff16815260200190815260200160002060020160009054906101000a900473ffffffffffffffffffffffffffffffffffffffff169050600081905060008173ffffffffffffffffffffffffffffffffffffffff1663feaf968c6040518163ffffffff1660e01b815260040160a060405180830381865afa1580156110e4573d6000803e3d6000fd5b505050506040513d601f19601f820116820180604052508101906111089190611d4f565b50505091505080945050505050919050565b80600160008273ffffffffffffffffffffffffffffffffffffffff1673ffffffffffffffffffffffffffffffffffffffff16815260200190815260200160002060000160009054906101000a900460ff166111aa576040517f08c379a00000000000000000000000000000000000000000000000000000000081526004016111a190611932565b60405180910390fd5b6000600160008473ffffffffffffffffffffffffffffffffffffffff1673ffffffffffffffffffffffffffffffffffffffff16815260200190815260200160002060040160003373ffffffffffffffffffffffffffffffffffffffff1673ffffffffffffffffffffffffffffffffffffffff168152602001908152602001600020905060006112a4826040518060600160405290816000820154815260200160018201548152602001600282015481525050600160008773ffffffffffffffffffffffffffffffffffffffff1673ffffffffffffffffffffffffffffffffffffffff16815260200190815260200160002060010154611590565b9050600081116112e9576040517f08c379a00000000000000000000000000000000000000000000000000000000081526004016112e090611e16565b60405180910390fd5b428260010181905550600082600201819055508373ffffffffffffffffffffffffffffffffffffffff1663a9059cbb33836040518363ffffffff1660e01b8152600401611337929190611a2a565b6020604051808303816000875af1158015611356573d6000803e3d6000fd5b505050506040513d601f19601f8201168201806040525081019061137a9190611b54565b507f35f857183a2efa264d1fc146dc0da7d7a01231dad386041857fb52b3744814623385836040516113ae93929190611ae5565b60405180910390a150505050565b600081600160008273ffffffffffffffffffffffffffffffffffffffff1673ffffffffffffffffffffffffffffffffffffffff16815260200190815260200160002060000160009054906101000a900460ff1661144e576040517f08c379a000000000000000000000000000000000000000000000000000000000815260040161144590611932565b60405180910390fd5b600160008473ffffffffffffffffffffffffffffffffffffffff1673ffffffffffffffffffffffffffffffffffffffff16815260200190815260200160002060010154915050919050565b6114a1611602565b73ffffffffffffffffffffffffffffffffffffffff166114bf6109df565b73ffffffffffffffffffffffffffffffffffffffff1614611515576040517f08c379a000000000000000000000000000000000000000000000000000000000815260040161150c9061199e565b60405180910390fd5b600073ffffffffffffffffffffffffffffffffffffffff168173ffffffffffffffffffffffffffffffffffffffff1603611584576040517f08c379a000000000000000000000000000000000000000000000000000000000815260040161157b90611ea8565b60405180910390fd5b61158d8161160a565b50565b6000808360000151838560200151426115a99190611c98565b6115b39190611ec8565b6115bd9190611ec8565b905060008111156115f357670de0b6b3a7640000816115dc9190611f51565b84604001516115eb9190611bb0565b9150506115fc565b83604001519150505b92915050565b600033905090565b60008060009054906101000a900473ffffffffffffffffffffffffffffffffffffffff169050816000806101000a81548173ffffffffffffffffffffffffffffffffffffffff021916908373ffffffffffffffffffffffffffffffffffffffff1602179055508173ffffffffffffffffffffffffffffffffffffffff168173ffffffffffffffffffffffffffffffffffffffff167f8be0079c531659141344cd1fd0a4f28419497f9722a3daafe3b4186f6b6457e060405160405180910390a35050565b600080fd5b600073ffffffffffffffffffffffffffffffffffffffff82169050919050565b60006116fe826116d3565b9050919050565b61170e816116f3565b811461171957600080fd5b50565b60008135905061172b81611705565b92915050565b600060208284031215611747576117466116ce565b5b60006117558482850161171c565b91505092915050565b6000819050919050565b6117718161175e565b82525050565b600060208201905061178c6000830184611768565b92915050565b61179b8161175e565b81146117a657600080fd5b50565b6000813590506117b881611792565b92915050565b6000806000606084860312156117d7576117d66116ce565b5b60006117e58682870161171c565b93505060206117f68682870161171c565b9250506040611807868287016117a9565b9150509250925092565b61181a816116f3565b82525050565b60006020820190506118356000830184611811565b92915050565b60008060408385031215611852576118516116ce565b5b60006118608582860161171c565b9250506020611871858286016117a9565b9150509250929050565b6000819050919050565b61188e8161187b565b82525050565b60006020820190506118a96000830184611885565b92915050565b600082825260208201905092915050565b7f4f6e6c7920417574686f72697a656420746f6b656e206164647265737320636160008201527f6e206265207573656420666f72207468697320616374696f6e00000000000000602082015250565b600061191c6039836118af565b9150611927826118c0565b604082019050919050565b6000602082019050818103600083015261194b8161190f565b9050919050565b7f4f776e61626c653a2063616c6c6572206973206e6f7420746865206f776e6572600082015250565b60006119886020836118af565b915061199382611952565b602082019050919050565b600060208201905081810360008301526119b78161197b565b9050919050565b7f5468697320706f6f6c20697320616c7265616479206372656174656400000000600082015250565b60006119f4601c836118af565b91506119ff826119be565b602082019050919050565b60006020820190508181036000830152611a23816119e7565b9050919050565b6000604082019050611a3f6000830185611811565b611a4c6020830184611768565b9392505050565b7f4f6e6c7920616d6f756e742061626f7665207a65726f2061726520617574686f60008201527f72697a6564000000000000000000000000000000000000000000000000000000602082015250565b6000611aaf6025836118af565b9150611aba82611a53565b604082019050919050565b60006020820190508181036000830152611ade81611aa2565b9050919050565b6000606082019050611afa6000830186611811565b611b076020830185611811565b611b146040830184611768565b949350505050565b60008115159050919050565b611b3181611b1c565b8114611b3c57600080fd5b50565b600081519050611b4e81611b28565b92915050565b600060208284031215611b6a57611b696116ce565b5b6000611b7884828501611b3f565b91505092915050565b7f4e487b7100000000000000000000000000000000000000000000000000000000600052601160045260246000fd5b6000611bbb8261175e565b9150611bc68361175e565b9250827fffffffffffffffffffffffffffffffffffffffffffffffffffffffffffffffff03821115611bfb57611bfa611b81565b5b828201905092915050565b7f596f75206469646e27742073746f726564207468697320616d6f756e7420696e60008201527f2074686520706f6f6c0000000000000000000000000000000000000000000000602082015250565b6000611c626029836118af565b9150611c6d82611c06565b604082019050919050565b60006020820190508181036000830152611c9181611c55565b9050919050565b6000611ca38261175e565b9150611cae8361175e565b925082821015611cc157611cc0611b81565b5b828203905092915050565b600069ffffffffffffffffffff82169050919050565b611ceb81611ccc565b8114611cf657600080fd5b50565b600081519050611d0881611ce2565b92915050565b611d178161187b565b8114611d2257600080fd5b50565b600081519050611d3481611d0e565b92915050565b600081519050611d4981611792565b92915050565b600080600080600060a08688031215611d6b57611d6a6116ce565b5b6000611d7988828901611cf9565b9550506020611d8a88828901611d25565b9450506040611d9b88828901611d3a565b9350506060611dac88828901611d3a565b9250506080611dbd88828901611cf9565b9150509295509295909350565b7f4e6f2072657761726420746f20636c61696d0000000000000000000000000000600082015250565b6000611e006012836118af565b9150611e0b82611dca565b602082019050919050565b60006020820190508181036000830152611e2f81611df3565b9050919050565b7f4f776e61626c653a206e6577206f776e657220697320746865207a65726f206160008201527f6464726573730000000000000000000000000000000000000000000000000000602082015250565b6000611e926026836118af565b9150611e9d82611e36565b604082019050919050565b60006020820190508181036000830152611ec181611e85565b9050919050565b6000611ed38261175e565b9150611ede8361175e565b9250817fffffffffffffffffffffffffffffffffffffffffffffffffffffffffffffffff0483118215151615611f1757611f16611b81565b5b828202905092915050565b7f4e487b7100000000000000000000000000000000000000000000000000000000600052601260045260246000fd5b6000611f5c8261175e565b9150611f678361175e565b925082611f7757611f76611f22565b5b82820490509291505056fea264697066735822122096fa9f1f808c1311b8dc6ea77ac07298aede0de08f33a1ad2607c6422cf181cc64736f6c634300080d0033",
  "immutableReferences": {},
  "source": "// SPDX-License-Identifier: GPL-3.0\r\n\r\npragma solidity 0.8.13;\r\n\r\nimport \"@openzeppelin/contracts/access/Ownable.sol\";\r\nimport \"@openzeppelin/contracts/token/ERC20/IERC20.sol\";\r\nimport \"@chainlink/contracts/src/v0.8/interfaces/AggregatorV3Interface.sol\";\r\n\r\n/**\r\n * @title Hello World DeFi Protocol\r\n * @author The Hello World Team\r\n * @notice This contract offer the possibility to stake ERC20 in Liquidity Pools to receive Hello World Token rewards\r\n */\r\ncontract DeFiProtocol is Ownable {\r\n\r\n\r\n    // :::::::::::::: Struct ::::::::::::::: //\r\n\r\n    /**\r\n     * @notice This struct contains the data of a Staker\r\n     */\r\n    struct StakerData {\r\n        uint256 stakedAmount; \r\n        uint256 updateTimestamp;\r\n        uint256 reward;\r\n    }\r\n\r\n    /**\r\n     * @notice Contain liquidity pool data\r\n     * @dev aggregator address is used to get price over the Chainlink Oracle\r\n     */\r\n    struct LiquidityPoolData {\r\n        bool isCreated;\r\n        uint rewardPerSecond;\r\n        address oracleAggregatorAddress;\r\n        uint totalValueLocked;\r\n        mapping(address => StakerData) stakerData;\r\n    }\r\n\r\n    // ::::::::::::: Properties ::::::::::::: //\r\n\r\n    /**\r\n     * @notice This mapping store liquidity pool data per token address\r\n     */\r\n    mapping(address => LiquidityPoolData) liquidityPoolData;\r\n\r\n    /**\r\n     * @notice Token multiplier to give a price on the Hwt token\r\n     * @dev As our Hwt token don't have any value on the market, we use a basic multiplier\r\n     */\r\n    uint public hwtTokenUsdValue = 931500000000000000;\r\n\r\n    /**\r\n     * @notice Token multiplier to give a price on the Flp token\r\n     * @dev As our Flp token don't have any value on the market, we use a basic multiplier\r\n     */\r\n    uint public flpTokenUsdValue = 4932100000000000000;\r\n\r\n    // ::::::::::::: Modifiers ::::::::::::: //\r\n\r\n    /**\r\n     * @notice Modifier that allow only authorizedToken for liquidity pool\r\n     */\r\n    modifier onlyAuthorizedToken(address _tokenAddress) {\r\n        require(liquidityPoolData[_tokenAddress].isCreated, \"Only Authorized token address can be used for this action\");\r\n        _;\r\n    }\r\n\r\n    /**\r\n     * @notice Modifier that allow only amount greater than zero to be staked or unstaked\r\n     */\r\n    modifier onlyAmountGreaterThanZero(uint _amount) {\r\n        require(_amount > 0, \"Only amount above zero are authorized\");\r\n        _;\r\n    }\r\n\r\n    // ::::::::::::: Events ::::::::::::: //\r\n\r\n    /**\r\n     * @notice Event informing the staked amount was updated\r\n     * @param sender The address that staked in the pool\r\n     * @param tokenAddress The liquidity pool token\r\n     * @param stakedAmount The amount that has been staked\r\n     */\r\n    event StakedAmountUpdated (address sender, address tokenAddress, uint stakedAmount);\r\n\r\n    /** \r\n     * @notice Event informing a reward was send\r\n     * @param sender The address that claim the reward\r\n     * @param tokenAddress The liquidity pool token\r\n     * @param rewardClaimedAmount The amount that has been offered\r\n     */\r\n    event RewardOffered (address sender, address tokenAddress, uint rewardClaimedAmount);\r\n\r\n    /**\r\n     * @notice Event informing a new liquidity pool is created\r\n     * @param tokenAddress The address of the pool token\r\n     * @param rewardPerSecond The reward rate per second\r\n     */\r\n    event PoolCreated (address tokenAddress, uint rewardPerSecond);\r\n\r\n    // ::::::::::::: Methods ::::::::::::: //\r\n\r\n    /**\r\n     * @notice Create a new pool with an erc20 token\r\n     * @param _tokenAddress the erc20 token address\r\n     * @param _oracleAggregatorAddress The oracle aggregator address that will permit to get the token price in USD\r\n     * @param _rewardPerSecond The win rate of the liquidity pool\r\n     */\r\n    function createLiquidityPool(address _tokenAddress, address _oracleAggregatorAddress, uint _rewardPerSecond) external onlyOwner {\r\n        require(!liquidityPoolData[_tokenAddress].isCreated, \"This pool is already created\");\r\n\r\n        liquidityPoolData[_tokenAddress].rewardPerSecond = _rewardPerSecond;\r\n        liquidityPoolData[_tokenAddress].oracleAggregatorAddress = _oracleAggregatorAddress;\r\n        liquidityPoolData[_tokenAddress].isCreated = true;\r\n\r\n        emit PoolCreated(_tokenAddress, _rewardPerSecond);\r\n    }\r\n\r\n    /**\r\n     * @notice Stake token in the Liquidity pool\r\n     * @dev Refresh the stored amount in the address mapping storedValuePerAddress and refresh the TVL\r\n     * @param _tokenAddress The token address to stake in liquidity pool\r\n     * @param _amount Total amount to store in the liquidity pool\r\n     */\r\n    function stake(address _tokenAddress, uint _amount) payable external onlyAuthorizedToken(_tokenAddress) onlyAmountGreaterThanZero(_amount) {\r\n        \r\n        IERC20(_tokenAddress).transferFrom(msg.sender, address(this), _amount);\r\n\r\n        // Get the liquidity pool data\r\n        LiquidityPoolData storage poolData = liquidityPoolData[_tokenAddress];\r\n        // Get the staker data\r\n        StakerData storage stakerData = poolData.stakerData[msg.sender];\r\n\r\n        // if tokens are already stored, update reward before the new stake\r\n        if(stakerData.stakedAmount > 0) {\r\n            stakerData.reward = computeReward(stakerData, poolData.rewardPerSecond);\r\n        }\r\n\r\n        // Update the staked amount and the timestamp to compute new amount reward at this specific time\r\n        stakerData.stakedAmount = stakerData.stakedAmount + _amount;\r\n        stakerData.updateTimestamp = block.timestamp; \r\n\r\n        // Update the tvl of the liquidity pool\r\n        poolData.totalValueLocked = poolData.totalValueLocked  + _amount;\r\n\r\n        emit StakedAmountUpdated(msg.sender, _tokenAddress, stakerData.stakedAmount);\r\n    }\r\n\r\n    /**\r\n     * @notice Unstake the tokens in the Liquidity pool, user can retrieve their tokens\r\n     * @dev Refresh the stored amount in the address mapping stakerDataPerAddress and refresh the TVL\r\n     * @param _tokenAddress The token address to unstake from liquidity pool\r\n     * @param _amount Total amount to unstake from the liquidity pool\r\n     */\r\n    function unstake(address _tokenAddress, uint256 _amount) payable external onlyAuthorizedToken(_tokenAddress) onlyAmountGreaterThanZero(_amount) {\r\n        \r\n        // Get the liquidity pool data\r\n        LiquidityPoolData storage poolData = liquidityPoolData[_tokenAddress];\r\n\r\n        // Get the staker data\r\n        StakerData storage stakerData = poolData.stakerData[msg.sender];\r\n        \r\n        // Check if the sender have this amount in pool\r\n        require(_amount <= stakerData.stakedAmount, \"You didn't stored this amount in the pool\");\r\n\r\n        // Update the reward first ! Then update staked amount and timestamp\r\n        stakerData.reward = computeReward(stakerData, poolData.rewardPerSecond);\r\n\r\n        // Update the staked amount and the timestamp to compute new amount reward at this specific time\r\n        stakerData.stakedAmount = stakerData.stakedAmount - _amount;\r\n        stakerData.updateTimestamp = block.timestamp;\r\n\r\n        // Update the tvl of the liquidity pool\r\n        poolData.totalValueLocked = poolData.totalValueLocked  - _amount;\r\n\r\n        // Send the token back to the sender\r\n        IERC20(_tokenAddress).transfer(msg.sender, _amount);\r\n        \r\n        emit StakedAmountUpdated(msg.sender, _tokenAddress, stakerData.stakedAmount);\r\n    }\r\n\r\n    /**\r\n     * @notice Get the msg.sender token staked amount\r\n     * @param _tokenAddress The address of the token to check for staked amount\r\n     * @return stakedAmount token staked by msg.sender\r\n     */\r\n    function getStakedAmount(address _tokenAddress) external view onlyAuthorizedToken(_tokenAddress) returns (uint stakedAmount) {\r\n        return(liquidityPoolData[_tokenAddress].stakerData[msg.sender].stakedAmount);\r\n    }\r\n\r\n    /**\r\n     * @notice Get the token price in USD\r\n     * @dev USD Price is retrieved thanks to Chainlink\r\n     * @param _tokenAddress The authorized token address to get price\r\n     * @return int price of the token\r\n     */\r\n    function getTokenPrice(address _tokenAddress) external view onlyAuthorizedToken(_tokenAddress) returns (int) {\r\n\r\n        // Retrieve oracle address\r\n        address oracleAddress = liquidityPoolData[_tokenAddress].oracleAggregatorAddress;\r\n        AggregatorV3Interface priceFeed = AggregatorV3Interface(oracleAddress);\r\n\r\n        // get price\r\n        (\r\n            /* uint80 roundID */,\r\n            int price,\r\n            /* uint256 startedAt, */,\r\n            /* uint256 timeStamp, */,\r\n            /* uint80 answeredInRound */\r\n        ) = priceFeed.latestRoundData();\r\n\r\n        return(price);\r\n    }\r\n\r\n    /**\r\n     * @notice Get the reward for msg.sender\r\n     * @param _tokenAddress The token address to get liquidity pool reward of this token\r\n     * @return reward The reward computed by the contract\r\n     */\r\n    function getRewardAmount(address _tokenAddress) external view onlyAuthorizedToken(_tokenAddress) returns (uint reward) {\r\n        return(computeReward(liquidityPoolData[_tokenAddress].stakerData[msg.sender], liquidityPoolData[_tokenAddress].rewardPerSecond));\r\n    }\r\n\r\n    /**\r\n     * @notice Compute the reward depending on time and existant reward\r\n     * @dev Timestamp are in seconds\r\n     * @param _stakerData Data of the staker\r\n     * @return rewardAmount The computed reward amount\r\n     */\r\n    function computeReward(StakerData memory _stakerData, uint _rewardPerSecond) private view returns(uint rewardAmount) {\r\n        \r\n        uint reward = ((block.timestamp - _stakerData.updateTimestamp) * _rewardPerSecond * _stakerData.stakedAmount);\r\n\r\n        if(reward > 0) {\r\n            return _stakerData.reward + (reward / 1e18);\r\n        }\r\n        else {\r\n            return _stakerData.reward;\r\n        }\r\n    }\r\n\r\n    /**\r\n     * @notice Send then reward to the msg.sender\r\n     * @param _tokenAddress The token address to claim reward from the pool\r\n     */\r\n    function claimReward(address _tokenAddress) external onlyAuthorizedToken(_tokenAddress) {\r\n\r\n        // Get the staker data\r\n        StakerData storage stakerData = liquidityPoolData[_tokenAddress].stakerData[msg.sender];\r\n\r\n        // Compute the reward\r\n        uint reward = computeReward(stakerData, liquidityPoolData[_tokenAddress].rewardPerSecond);\r\n\r\n        require(reward > 0, \"No reward to claim\");\r\n        \r\n        // Update the timestamp and the reward amount\r\n        stakerData.updateTimestamp = block.timestamp;\r\n        stakerData.reward = 0;\r\n\r\n        // Send reward tokens to the msg.sender\r\n        IERC20(_tokenAddress).transfer(msg.sender, reward);\r\n\r\n        emit RewardOffered(msg.sender, _tokenAddress, reward);\r\n    }\r\n\r\n    /**\r\n     * @notice Get the total value Locked of a liquidity pool\r\n     * @param _tokenAddress The token address for the liquidity pool\r\n     * @return uint The TVL of the pool\r\n     */\r\n    function getTotalValueLocked(address _tokenAddress) external view onlyAuthorizedToken(_tokenAddress) returns (uint) {\r\n\r\n        return liquidityPoolData[_tokenAddress].totalValueLocked;\r\n    }\r\n\r\n    /**\r\n     * @notice Get the reward rate per second\r\n     * @param _tokenAddress The token address for the liquidity pool\r\n     * @return uint The Reward per second for the pool\r\n     */\r\n    function getRewardPerSecond(address _tokenAddress) external view onlyAuthorizedToken(_tokenAddress) returns (uint) {\r\n\r\n        return liquidityPoolData[_tokenAddress].rewardPerSecond;\r\n    }\r\n}",
  "sourcePath": "/home/sylvain/DeFi-Liquidity-Pool/contracts/DeFiProtocol.sol",
  "compiler": {
    "name": "solc",
    "version": "0.8.13+commit.abaa5c0e.Emscripten.clang"
  },
  "schemaVersion": "3.4.7",
  "updatedAt": "2022-05-14T13:26:10.822Z",
  "networkType": "ethereum",
  "devdoc": {
    "author": "The Hello World Team",
    "events": {
      "PoolCreated(address,uint256)": {
        "params": {
          "rewardPerSecond": "The reward rate per second",
          "tokenAddress": "The address of the pool token"
        }
      },
      "RewardOffered(address,address,uint256)": {
        "params": {
          "rewardClaimedAmount": "The amount that has been offered",
          "sender": "The address that claim the reward",
          "tokenAddress": "The liquidity pool token"
        }
      },
      "StakedAmountUpdated(address,address,uint256)": {
        "params": {
          "sender": "The address that staked in the pool",
          "stakedAmount": "The amount that has been staked",
          "tokenAddress": "The liquidity pool token"
        }
      }
    },
    "kind": "dev",
    "methods": {
      "claimReward(address)": {
        "params": {
          "_tokenAddress": "The token address to claim reward from the pool"
        }
      },
      "createLiquidityPool(address,address,uint256)": {
        "params": {
          "_oracleAggregatorAddress": "The oracle aggregator address that will permit to get the token price in USD",
          "_rewardPerSecond": "The win rate of the liquidity pool",
          "_tokenAddress": "the erc20 token address"
        }
      },
      "getRewardAmount(address)": {
        "params": {
          "_tokenAddress": "The token address to get liquidity pool reward of this token"
        },
        "returns": {
          "reward": "The reward computed by the contract"
        }
      },
      "getRewardPerSecond(address)": {
        "params": {
          "_tokenAddress": "The token address for the liquidity pool"
        },
        "returns": {
          "_0": "uint The Reward per second for the pool"
        }
      },
      "getStakedAmount(address)": {
        "params": {
          "_tokenAddress": "The address of the token to check for staked amount"
        },
        "returns": {
          "stakedAmount": "token staked by msg.sender"
        }
      },
      "getTokenPrice(address)": {
        "details": "USD Price is retrieved thanks to Chainlink",
        "params": {
          "_tokenAddress": "The authorized token address to get price"
        },
        "returns": {
          "_0": "int price of the token"
        }
      },
      "getTotalValueLocked(address)": {
        "params": {
          "_tokenAddress": "The token address for the liquidity pool"
        },
        "returns": {
          "_0": "uint The TVL of the pool"
        }
      },
      "owner()": {
        "details": "Returns the address of the current owner."
      },
      "renounceOwnership()": {
        "details": "Leaves the contract without owner. It will not be possible to call `onlyOwner` functions anymore. Can only be called by the current owner. NOTE: Renouncing ownership will leave the contract without an owner, thereby removing any functionality that is only available to the owner."
      },
      "stake(address,uint256)": {
        "details": "Refresh the stored amount in the address mapping storedValuePerAddress and refresh the TVL",
        "params": {
          "_amount": "Total amount to store in the liquidity pool",
          "_tokenAddress": "The token address to stake in liquidity pool"
        }
      },
      "transferOwnership(address)": {
        "details": "Transfers ownership of the contract to a new account (`newOwner`). Can only be called by the current owner."
      },
      "unstake(address,uint256)": {
        "details": "Refresh the stored amount in the address mapping stakerDataPerAddress and refresh the TVL",
        "params": {
          "_amount": "Total amount to unstake from the liquidity pool",
          "_tokenAddress": "The token address to unstake from liquidity pool"
        }
      }
    },
    "stateVariables": {
      "flpTokenUsdValue": {
        "details": "As our Flp token don't have any value on the market, we use a basic multiplier"
      },
      "hwtTokenUsdValue": {
        "details": "As our Hwt token don't have any value on the market, we use a basic multiplier"
      }
    },
    "title": "Hello World DeFi Protocol",
    "version": 1
  },
  "userdoc": {
    "events": {
      "PoolCreated(address,uint256)": {
        "notice": "Event informing a new liquidity pool is created"
      },
      "RewardOffered(address,address,uint256)": {
        "notice": "Event informing a reward was send"
      },
      "StakedAmountUpdated(address,address,uint256)": {
        "notice": "Event informing the staked amount was updated"
      }
    },
    "kind": "user",
    "methods": {
      "claimReward(address)": {
        "notice": "Send then reward to the msg.sender"
      },
      "createLiquidityPool(address,address,uint256)": {
        "notice": "Create a new pool with an erc20 token"
      },
      "flpTokenUsdValue()": {
        "notice": "Token multiplier to give a price on the Flp token"
      },
      "getRewardAmount(address)": {
        "notice": "Get the reward for msg.sender"
      },
      "getRewardPerSecond(address)": {
        "notice": "Get the reward rate per second"
      },
      "getStakedAmount(address)": {
        "notice": "Get the msg.sender token staked amount"
      },
      "getTokenPrice(address)": {
        "notice": "Get the token price in USD"
      },
      "getTotalValueLocked(address)": {
        "notice": "Get the total value Locked of a liquidity pool"
      },
      "hwtTokenUsdValue()": {
        "notice": "Token multiplier to give a price on the Hwt token"
      },
      "stake(address,uint256)": {
        "notice": "Stake token in the Liquidity pool"
      },
      "unstake(address,uint256)": {
        "notice": "Unstake the tokens in the Liquidity pool, user can retrieve their tokens"
      }
    },
    "notice": "This contract offer the possibility to stake ERC20 in Liquidity Pools to receive Hello World Token rewards",
    "version": 1
  }
}