{
  "contractName": "DeFiProtocol",
  "abi": [
    {
      "anonymous": false,
      "inputs": [
        {
          "indexed": false,
          "internalType": "address",
          "name": "approver",
          "type": "address"
        },
        {
          "indexed": false,
          "internalType": "address",
          "name": "spender",
          "type": "address"
        },
        {
          "indexed": false,
          "internalType": "uint256",
          "name": "amount",
          "type": "uint256"
        }
      ],
      "name": "Approval",
      "type": "event"
    },
    {
      "anonymous": false,
      "inputs": [
        {
          "indexed": true,
          "internalType": "address",
          "name": "previousOwner",
          "type": "address"
        },
        {
          "indexed": true,
          "internalType": "address",
          "name": "newOwner",
          "type": "address"
        }
      ],
      "name": "OwnershipTransferred",
      "type": "event"
    },
    {
      "inputs": [],
      "name": "ETH",
      "outputs": [
        {
          "internalType": "address",
          "name": "",
          "type": "address"
        }
      ],
      "stateMutability": "view",
      "type": "function",
      "constant": true
    },
    {
      "inputs": [],
      "name": "ethPoolTotalAmount",
      "outputs": [
        {
          "internalType": "uint256",
          "name": "",
          "type": "uint256"
        }
      ],
      "stateMutability": "view",
      "type": "function",
      "constant": true
    },
    {
      "inputs": [],
      "name": "owner",
      "outputs": [
        {
          "internalType": "address",
          "name": "",
          "type": "address"
        }
      ],
      "stateMutability": "view",
      "type": "function",
      "constant": true
    },
    {
      "inputs": [],
      "name": "renounceOwnership",
      "outputs": [],
      "stateMutability": "nonpayable",
      "type": "function"
    },
    {
      "inputs": [
        {
          "internalType": "address",
          "name": "newOwner",
          "type": "address"
        }
      ],
      "name": "transferOwnership",
      "outputs": [],
      "stateMutability": "nonpayable",
      "type": "function"
    },
    {
      "inputs": [
        {
          "internalType": "address",
          "name": "_erc",
          "type": "address"
        }
      ],
      "name": "setTokenAddress",
      "outputs": [],
      "stateMutability": "nonpayable",
      "type": "function"
    },
    {
      "inputs": [
        {
          "internalType": "address",
          "name": "spender",
          "type": "address"
        },
        {
          "internalType": "uint256",
          "name": "amount",
          "type": "uint256"
        }
      ],
      "name": "approve",
      "outputs": [
        {
          "internalType": "bool",
          "name": "",
          "type": "bool"
        }
      ],
      "stateMutability": "nonpayable",
      "type": "function"
    },
    {
      "inputs": [
        {
          "internalType": "uint256",
          "name": "_amount",
          "type": "uint256"
        }
      ],
      "name": "stakeEthTokens",
      "outputs": [
        {
          "internalType": "bool",
          "name": "",
          "type": "bool"
        }
      ],
      "stateMutability": "payable",
      "type": "function",
      "payable": true
    }
  ],
  "bytecode": "0x6080604052600060025573c000000000000000000000000000000000000000600360006101000a81548173ffffffffffffffffffffffffffffffffffffffff021916908373ffffffffffffffffffffffffffffffffffffffff16021790555034801561006a57600080fd5b5061008761007c61008c60201b60201c565b61009460201b60201c565b610158565b600033905090565b60008060009054906101000a900473ffffffffffffffffffffffffffffffffffffffff169050816000806101000a81548173ffffffffffffffffffffffffffffffffffffffff021916908373ffffffffffffffffffffffffffffffffffffffff1602179055508173ffffffffffffffffffffffffffffffffffffffff168173ffffffffffffffffffffffffffffffffffffffff167f8be0079c531659141344cd1fd0a4f28419497f9722a3daafe3b4186f6b6457e060405160405180910390a35050565b610c03806101676000396000f3fe60806040526004361061007b5760003560e01c80638322fff21161004e5780638322fff21461012d5780638da5cb5b14610158578063d22a9fe914610183578063f2fde38b146101ae5761007b565b8063095ea7b31461008057806326a4e8d2146100bd5780633c7f4a34146100e6578063715018a614610116575b600080fd5b34801561008c57600080fd5b506100a760048036038101906100a291906107ca565b6101d7565b6040516100b49190610825565b60405180910390f35b3480156100c957600080fd5b506100e460048036038101906100df9190610840565b6102bf565b005b61010060048036038101906100fb919061086d565b610303565b60405161010d9190610825565b60405180910390f35b34801561012257600080fd5b5061012b610491565b005b34801561013957600080fd5b50610142610519565b60405161014f91906108a9565b60405180910390f35b34801561016457600080fd5b5061016d61053f565b60405161017a91906108a9565b60405180910390f35b34801561018f57600080fd5b50610198610568565b6040516101a591906108d3565b60405180910390f35b3480156101ba57600080fd5b506101d560048036038101906101d09190610840565b61056e565b005b6000600460009054906101000a900473ffffffffffffffffffffffffffffffffffffffff1673ffffffffffffffffffffffffffffffffffffffff1663095ea7b384846040518363ffffffff1660e01b81526004016102369291906108ee565b6020604051808303816000875af1158015610255573d6000803e3d6000fd5b505050506040513d601f19601f820116820180604052508101906102799190610943565b507f8c5be1e5ebec7d5bd14f71427d1e84f3dd0314c0f7b2291e5b200ac8c7c3b9253384846040516102ad93929190610970565b60405180910390a16001905092915050565b80600460006101000a81548173ffffffffffffffffffffffffffffffffffffffff021916908373ffffffffffffffffffffffffffffffffffffffff16021790555050565b6000600460009054906101000a900473ffffffffffffffffffffffffffffffffffffffff1673ffffffffffffffffffffffffffffffffffffffff166323b872dd3330856040518463ffffffff1660e01b815260040161036493929190610970565b6020604051808303816000875af1158015610383573d6000803e3d6000fd5b505050506040513d601f19601f820116820180604052508101906103a79190610943565b6103e6576040517f08c379a00000000000000000000000000000000000000000000000000000000081526004016103dd90610a2a565b60405180910390fd5b816002546103f49190610a79565b60028190555081600160003373ffffffffffffffffffffffffffffffffffffffff1673ffffffffffffffffffffffffffffffffffffffff168152602001908152602001600020546104459190610a79565b600160003373ffffffffffffffffffffffffffffffffffffffff1673ffffffffffffffffffffffffffffffffffffffff1681526020019081526020016000208190555060019050919050565b610499610665565b73ffffffffffffffffffffffffffffffffffffffff166104b761053f565b73ffffffffffffffffffffffffffffffffffffffff161461050d576040517f08c379a000000000000000000000000000000000000000000000000000000000815260040161050490610b1b565b60405180910390fd5b610517600061066d565b565b600360009054906101000a900473ffffffffffffffffffffffffffffffffffffffff1681565b60008060009054906101000a900473ffffffffffffffffffffffffffffffffffffffff16905090565b60025481565b610576610665565b73ffffffffffffffffffffffffffffffffffffffff1661059461053f565b73ffffffffffffffffffffffffffffffffffffffff16146105ea576040517f08c379a00000000000000000000000000000000000000000000000000000000081526004016105e190610b1b565b60405180910390fd5b600073ffffffffffffffffffffffffffffffffffffffff168173ffffffffffffffffffffffffffffffffffffffff1603610659576040517f08c379a000000000000000000000000000000000000000000000000000000000815260040161065090610bad565b60405180910390fd5b6106628161066d565b50565b600033905090565b60008060009054906101000a900473ffffffffffffffffffffffffffffffffffffffff169050816000806101000a81548173ffffffffffffffffffffffffffffffffffffffff021916908373ffffffffffffffffffffffffffffffffffffffff1602179055508173ffffffffffffffffffffffffffffffffffffffff168173ffffffffffffffffffffffffffffffffffffffff167f8be0079c531659141344cd1fd0a4f28419497f9722a3daafe3b4186f6b6457e060405160405180910390a35050565b600080fd5b600073ffffffffffffffffffffffffffffffffffffffff82169050919050565b600061076182610736565b9050919050565b61077181610756565b811461077c57600080fd5b50565b60008135905061078e81610768565b92915050565b6000819050919050565b6107a781610794565b81146107b257600080fd5b50565b6000813590506107c48161079e565b92915050565b600080604083850312156107e1576107e0610731565b5b60006107ef8582860161077f565b9250506020610800858286016107b5565b9150509250929050565b60008115159050919050565b61081f8161080a565b82525050565b600060208201905061083a6000830184610816565b92915050565b60006020828403121561085657610855610731565b5b60006108648482850161077f565b91505092915050565b60006020828403121561088357610882610731565b5b6000610891848285016107b5565b91505092915050565b6108a381610756565b82525050565b60006020820190506108be600083018461089a565b92915050565b6108cd81610794565b82525050565b60006020820190506108e860008301846108c4565b92915050565b6000604082019050610903600083018561089a565b61091060208301846108c4565b9392505050565b6109208161080a565b811461092b57600080fd5b50565b60008151905061093d81610917565b92915050565b60006020828403121561095957610958610731565b5b60006109678482850161092e565b91505092915050565b6000606082019050610985600083018661089a565b610992602083018561089a565b61099f60408301846108c4565b949350505050565b600082825260208201905092915050565b7f596f7520646f6e2774206861766520656e6f7567682045544820696e20796f7560008201527f722077616c6c657420666f722074686973207472616e73616374696f6e000000602082015250565b6000610a14603d836109a7565b9150610a1f826109b8565b604082019050919050565b60006020820190508181036000830152610a4381610a07565b9050919050565b7f4e487b7100000000000000000000000000000000000000000000000000000000600052601160045260246000fd5b6000610a8482610794565b9150610a8f83610794565b9250827fffffffffffffffffffffffffffffffffffffffffffffffffffffffffffffffff03821115610ac457610ac3610a4a565b5b828201905092915050565b7f4f776e61626c653a2063616c6c6572206973206e6f7420746865206f776e6572600082015250565b6000610b056020836109a7565b9150610b1082610acf565b602082019050919050565b60006020820190508181036000830152610b3481610af8565b9050919050565b7f4f776e61626c653a206e6577206f776e657220697320746865207a65726f206160008201527f6464726573730000000000000000000000000000000000000000000000000000602082015250565b6000610b976026836109a7565b9150610ba282610b3b565b604082019050919050565b60006020820190508181036000830152610bc681610b8a565b905091905056fea26469706673582212208db425de1bf62150828deaa03485349058a41ba326c5cdab84892e4968133b4464736f6c634300080d0033",
  "immutableReferences": {},
  "source": "// SPDX-License-Identifier: GPL-3.0\r\n\r\npragma solidity 0.8.13;\r\n\r\nimport \"@openzeppelin/contracts/access/Ownable.sol\";\r\nimport \"@openzeppelin/contracts/token/ERC20/IERC20.sol\";\r\n\r\n/**\r\n * @title Hello World DeFi Protocol\r\n * @author The Hello World Team\r\n * @notice This contract offer the possibility to stake ERC20 in Liquidity Pools to receive Hello World Token rewards\r\n */\r\ncontract DeFiProtocol is Ownable {\r\n\r\n    /**\r\n     * @notice This mapping store the amount of eth by address\r\n     */\r\n    mapping(address => uint256) ethPoolAddressBalances;\r\n\r\n    /**\r\n     * @notice The total amount stored in the liquidity pool\r\n     */\r\n    uint256 public ethPoolTotalAmount = 0;\r\n\r\n    address public ETH = 0xC000000000000000000000000000000000000000;\r\n    \r\n    event Approval(address approver, address spender, uint256 amount);\r\n    \r\n    /**\r\n     * @notice The ETH Token address\r\n     */\r\n    IERC20 private ethToken;\r\n\r\n    function setTokenAddress(address _erc) external {\r\n        ethToken = IERC20(_erc);\r\n    }\r\n\r\n    /**\r\n     * @notice Approval method to call before a transferFrom\r\n     */\r\n    function approve(address spender, uint256 amount) external returns (bool) {\r\n        ethToken.approve(spender, amount);\r\n        emit Approval(msg.sender, spender, amount);\r\n        return true;\r\n    }\r\n\r\n    /**\r\n     * @notice Allow to store eth in the Eth Liquidity pool\r\n     * @dev Refresh the stored amount in the address mapping ethPoolAddressBalances and refresh the total balance of the pool ethPoolTotalAmount\r\n     * @param _amount Total amount to store in the eth liquidity pool\r\n     */\r\n    function stakeEthTokens(uint256 _amount) payable external returns(bool) {\r\n\r\n        require(ethToken.transferFrom(msg.sender, address(this), _amount), \"You don't have enough ETH in your wallet for this transaction\");\r\n        ethPoolTotalAmount = ethPoolTotalAmount  + _amount;\r\n        ethPoolAddressBalances[msg.sender] = ethPoolAddressBalances[msg.sender] + _amount;\r\n        return true;\r\n    }\r\n}",
  "sourcePath": "/mnt/d/Alyra/DeFi-Liquidity-Pool/contracts/DeFiProtocol.sol",
  "compiler": {
    "name": "solc",
    "version": "0.8.13+commit.abaa5c0e.Emscripten.clang"
  },
  "schemaVersion": "3.4.6",
  "updatedAt": "2022-05-04T22:20:09.456Z",
  "networkType": "ethereum",
  "devdoc": {
    "author": "The Hello World Team",
    "kind": "dev",
    "methods": {
      "owner()": {
        "details": "Returns the address of the current owner."
      },
      "renounceOwnership()": {
        "details": "Leaves the contract without owner. It will not be possible to call `onlyOwner` functions anymore. Can only be called by the current owner. NOTE: Renouncing ownership will leave the contract without an owner, thereby removing any functionality that is only available to the owner."
      },
      "stakeEthTokens(uint256)": {
        "details": "Refresh the stored amount in the address mapping ethPoolAddressBalances and refresh the total balance of the pool ethPoolTotalAmount",
        "params": {
          "_amount": "Total amount to store in the eth liquidity pool"
        }
      },
      "transferOwnership(address)": {
        "details": "Transfers ownership of the contract to a new account (`newOwner`). Can only be called by the current owner."
      }
    },
    "title": "Hello World DeFi Protocol",
    "version": 1
  },
  "userdoc": {
    "kind": "user",
    "methods": {
      "approve(address,uint256)": {
        "notice": "Approval method to call before a transferFrom"
      },
      "ethPoolTotalAmount()": {
        "notice": "The total amount stored in the liquidity pool"
      },
      "stakeEthTokens(uint256)": {
        "notice": "Allow to store eth in the Eth Liquidity pool"
      }
    },
    "notice": "This contract offer the possibility to stake ERC20 in Liquidity Pools to receive Hello World Token rewards",
    "version": 1
  }
}